:100000000C942A000C9447000C9447000C94470071
:100010000C9447000C9447000C94CB070C944700B9
:100020000C9447000C9447000C942E070C949807EE
:100030000C9447000C9447000C9447000C94470024
:100040000C9444020C9447000C9447000C94470015
:100050000C94470011241FBECFE5D8E0DEBFCDBF12
:1000600010E0A0E6B0E0E2E7F1E102C005900D92F9
:10007000A236B107D9F710E0A2E6B0E001C01D92A8
:10008000AC37B107E1F70E94FE070C94B7080C9457
:100090000000DF93CF93CDB7DEB7A7E2B0E0E7E291
:1000A000F0E0808180648C93A7E2B0E0E7E2F0E0CA
:1000B00080818F778C93A7E2B0E0E7E2F0E0808167
:1000C00080628C93A6E2B0E0E6E2F0E08081887F77
:1000D0008C93A6E2B0E0E6E2F0E0808183608C934E
:1000E000A6E2B0E0E6E2F0E0808180688C93CF91F8
:1000F000DF910895DF93CF93CDB7DEB729970FB681
:10010000F894DEBF0FBECDBF8F837987688781E00B
:100110008E831A821B821C821D821982809160004C
:10012000813009F06EC082E080936000A7E2B0E009
:10013000E7E2F0E0808180768C93A7E2B0E0E7E22E
:10014000F0E090818F81892B8C93A6E2B0E0E6E20B
:10015000F0E0808180648C930BC08A819B81AC81AC
:10016000BD810196A11DB11D8A839B83AC83BD8394
:10017000E6E2F0E0808182958F70882F90E08170B8
:100180009070009761F48A819B81AC81BD8180353C
:1001900023EC920720E0A20720E0B207F1F68A8163
:1001A0009B81AC81BD81803523EC920720E0A207C2
:1001B00020E0B20719F481E0898325C0A6E2B0E00F
:1001C000E6E2F0E0808180618C938E81813051F491
:1001D000E5E2F0E08081882F90E0E885F985918361
:1001E00080830BC08E81823041F4E4E2F0E08081B4
:1001F0009181E885F9859183808381E08093600017
:1002000002C083E089838981882F90E029960FB608
:10021000F894DEBF0FBECDBFCF91DF910895DF937D
:10022000CF9300D000D000D0CDB7DEB78A837C83D7
:100230006B835E834D83809160008130D1F58B812B
:100240009C81009721F08D819E81009719F482E0B6
:10025000898331C082E08093600010926C008B81B2
:100260009C8190936300809362008D819E81909326
:10027000650080936400A7E2B0E0E7E2F0E08081EF
:1002800080768C93A7E2B0E0E7E2F0E090818A818B
:10029000892B8C93A6E2B0E0E6E2F0E080818064F6
:1002A0008C93A6E2B0E0E6E2F0E0808188608C9377
:1002B00002C083E089838981882F90E026960FB65B
:1002C000F894DEBF0FBECDBFCF91DF910895AF92FE
:1002D000BF92CF92DF92EF92FF920F931F93DF9323
:1002E000CF93CDB7DEB760970FB6F894DEBF0FBEE1
:1002F000CDBF69837A838B839C832D833E834F8319
:100300005887E986FA860B871C87AD86BE86CF861E
:10031000D88A2D853E854F85588989859A85AB85F4
:10032000BC8579018A01E81AF90A0A0B1B0B2D8D8D
:100330003E8D4F8D58A189819A81AB81BC81281B4C
:10034000390B4A0B5B0BC801B7010E945B087B01AC
:100350008C012D813E814F81588589819A81AB81A5
:10036000BC81281B390B4A0B5B0BC801B7010E94EB
:100370007A08DA01C9019C01AD0189859A85AB85AE
:10038000BC85820F931FA41FB51FBC01CD016096D1
:100390000FB6F894DEBF0FBECDBFCF91DF911F9196
:1003A0000F91FF90EF90DF90CF90BF90AF900895A6
:1003B000DF93CF9300D00F92CDB7DEB79B838A83B4
:1003C00019828A819B81009719F482E0898355C044
:1003D00080916000813009F04EC082E0809360001F
:1003E00081E080936C00EA81FB8180819181909310
:1003F000670080936600EA81FB81828193819093FC
:10040000690080936800EA81FB81848180936B009E
:10041000EA81FB81858196819093650080936400D9
:1004200010926A00A7E2B0E0E7E2F0E08081807E0F
:100430008C93A7E2B0E0E7E2F0E040812091660013
:100440003091670080916A00882F90E0F901E80FF1
:10045000F91F8081842B8C93A6E2B0E0E6E2F0E005
:10046000808180648C93A6E2B0E0E6E2F0E08081D7
:1004700088608C9302C083E0898389810F900F90FC
:100480000F90CF91DF9108951F920F920FB60F92A8
:1004900011242F933F934F935F936F937F938F9389
:1004A0009F93AF93BF93EF93FF93DF93CF930F92FD
:1004B000CDB7DEB781E0898380916C00882369F530
:1004C0008981813069F4A0916200B0916300E5E216
:1004D000F0E08081882F90E011969C938E930DC060
:1004E0008981823051F4E0916200F0916300A4E2CE
:1004F000B0E08D919C919183808381E08093600036
:10050000E0916400F09165000995A6E2B0E0E6E2B2
:10051000F0E08081877F8C9371C080916C00813086
:1005200009F06CC089818130B1F42091680030916C
:10053000690080916A00882F90E0880F991FD90187
:10054000A80FB91FE5E2F0E08081882F90E01196B6
:100550009C938E9317C089818230A1F4209168000A
:100560003091690080916A00882F90E0880F991F70
:10057000D901A80FB91FE4E2F0E0808191811196C2
:100580009C938E9380916A008F5F80936A00909114
:100590006A0080916B00981781F481E0809360007D
:1005A000E0916400F09165000995A6E2B0E0E6E212
:1005B000F0E08081877F8C9321C0A7E2B0E0E7E282
:1005C000F0E08081807E8C93A7E2B0E0E7E2F0E08B
:1005D0004081209166003091670080916A00882FE9
:1005E00090E0F901E80FF91F8081842B8C93A6E23B
:1005F000B0E0E6E2F0E0808180648C930F90CF91D0
:10060000DF91FF91EF91BF91AF919F918F917F917A
:100610006F915F914F913F912F910F900FBE0F906F
:100620001F901895DF93CF93CDB7DEB728970FB6FD
:10063000F894DEBF0FBECDBF8A836B834C831982D3
:100640008B81883008F0F4C08C81882309F077C052
:100650008A81282F30E038872F838F8198858130D9
:10066000910559F12F813885223031052CF48F8185
:100670009885009769F060C02F8138852230310558
:1006800089F18F8198858330910509F440C054C069
:10069000ABE3B0E0EBE3F0E08081482F8B81282FC3
:1006A00030E081E090E0022E02C0880F991F0A948A
:1006B000E2F7809584238C93BDC0A8E3B0E0E8E323
:1006C000F0E08081482F8B81282F30E081E090E09E
:1006D000022E02C0880F991F0A94E2F780958423A6
:1006E0008C93A8C0A5E3B0E0E5E3F0E08081482F5B
:1006F0008B81282F30E081E090E0022E02C0880F2D
:10070000991F0A94E2F7809584238C9393C0A2E307
:10071000B0E0E2E3F0E08081482F8B81282F30E0C9
:1007200081E090E0022E02C0880F991F0A94E2F740
:10073000809584238C937EC081E089837BC08C81EB
:10074000813009F072C08A81282F30E03E832D83EA
:100750008D819E818130910549F12D813E8122302C
:1007600031052CF48D819E81009761F05BC02D8155
:100770003E812230310571F18D819E81833091055A
:10078000E9F150C0ABE3B0E0EBE3F0E08081482F4B
:100790008B81282F30E081E090E0022E02C0880F8C
:1007A000991F0A94E2F7842B8C9344C0A8E3B0E02D
:1007B000E8E3F0E08081482F8B81282F30E081E052
:1007C00090E0022E02C0880F991F0A94E2F7842B52
:1007D0008C9330C0A5E3B0E0E5E3F0E08081482FE2
:1007E0008B81282F30E081E090E0022E02C0880F3C
:1007F000991F0A94E2F7842B8C931CC0A2E3B0E00B
:10080000E2E3F0E08081482F8B81282F30E081E007
:1008100090E0022E02C0880F991F0A94E2F7842B01
:100820008C9308C081E0898305C081E0898302C080
:1008300081E08983898128960FB6F894DEBF0FBEC8
:10084000CDBFCF91DF910895DF93CF9300D000D03B
:100850000F92CDB7DEB78A836B8319828A81282FE6
:1008600030E03D832C838C819D8181309105D1F0D6
:100870002C813D81223031052CF48C819D810097A3
:1008800061F01FC02C813D812230310581F08C81C7
:100890009D818330910581F014C0EBE3F0E08B8102
:1008A000808311C0E8E3F0E08B8180830CC0E5E336
:1008B000F0E08B81808307C0E2E3F0E08B818083EE
:1008C00002C081E0898389810F900F900F900F9073
:1008D0000F90CF91DF910895DF93CF93CDB7DEB71F
:1008E00027970FB6F894DEBF0FBECDBF8A836B8308
:1008F0005D834C8319828C819D81009709F478C0B7
:100900008B81883008F074C08A81282F30E03F83C3
:100910002E834E815F814130510559F18E819F8137
:100920008230910534F42E813F812115310569F023
:100930005CC04E815F814230510579F18E819F818B
:100940008330910509F43DC050C0E9E3F0E08081B7
:10095000282F30E08B81882F90E0A90102C05595A7
:1009600047958A95E2F7CA018170EC81FD81808309
:1009700041C0E6E3F0E08081282F30E08B81882FB2
:1009800090E0A90102C0559547958A95E2F7CA0102
:100990008170EC81FD8180832DC0E3E3F0E08081F4
:1009A000282F30E08B81882F90E0A90102C0559557
:1009B00047958A95E2F7CA018170EC81FD818083B9
:1009C00019C0E0E3F0E08081282F30E08B81882F90
:1009D00090E0A90102C0559547958A95E2F7CA01B2
:1009E0008170EC81FD81808305C081E0898302C034
:1009F00081E08983898127960FB6F894DEBF0FBE08
:100A0000CDBFCF91DF910895DF93CF93CDB7DEB700
:100A1000AFE5B0E0EFE5F0E0808180688C93CF91A6
:100A2000DF910895DF93CF93CDB7DEB7AFE5B0E0A8
:100A3000EFE5F0E080818F778C93CF91DF9108957F
:100A4000DF93CF93CDB7DEB7EAE3F0E01082E7E3C0
:100A5000F0E088E08083E4E3F0E01082E1E3F0E09E
:100A600080E28083EBE3F0E01082E8E3F0E01082C4
:100A7000E5E3F0E01082E2E3F0E01082CF91DF9155
:100A80000895DF93CF93CDB7DEB7CF91DF9108956F
:100A9000DF93CF930F92CDB7DEB78983E2E5F0E025
:100AA000898180830F90CF91DF910895DF93CF9359
:100AB0000F92CDB7DEB78983ECE5F0E089818083C2
:100AC0000F90CF91DF910895DF93CF93CDB7DEB72D
:100AD000A3E5B0E0E3E5F0E08081887F8C93A3E5B7
:100AE000B0E0E3E5F0E0808182608C93CF91DF910C
:100AF0000895DF93CF9300D00F92CDB7DEB79B83DD
:100B00008A8319828A819B81009739F08A819B812F
:100B10009093700080936F0002C082E08983898186
:100B20000F900F900F90CF91DF910895DF93CF93A7
:100B300000D00F92CDB7DEB79B838A8319828A815A
:100B40009B81009739F08A819B8190936E008093FE
:100B50006D0002C082E0898389810F900F900F9011
:100B6000CF91DF910895DF93CF93CDB7DEB728976C
:100B70000FB6F894DEBF0FBECDBF6A837B838C8334
:100B80009D835F834E83288719828E819F81009782
:100B900009F445C0A3E5B0E0E3E5F0E080818F7B98
:100BA0008C93A3E5B0E0E3E5F0E0808188608C936E
:100BB000A9E5B0E0E9E5F0E0808182608C93ECE5A6
:100BC000F0E08AEF8083A3E5B0E0E3E5F0E0808128
:100BD000887F8C93A3E5B0E0E3E5F0E0808182605C
:100BE0008C938E819F8190937200809371008A8193
:100BF0009B81AC81BD81880F991FAA1FBB1F880FE5
:100C0000991FAA1FBB1F8093770090937800A09331
:100C10007900B0937A00888580937B0002C082E0DF
:100C20008983898128960FB6F894DEBF0FBECDBFA9
:100C3000CF91DF910895DF93CF93CDB7DEB7AEE4C8
:100C4000B0E0EEE4F0E08081887F8C93AEE4B0E029
:100C5000EEE4F0E0808182608C93CF91DF91089583
:100C6000DF93CF93CDB7DEB7AFE4B0E0EFE4F0E0D1
:100C700080818F7B8C93AFE4B0E0EFE4F0E0808183
:100C800080688C93AFE4B0E0EFE4F0E080818E7F89
:100C90008C93AFE4B0E0EFE4F0E0808182608C936D
:100CA000AEE4B0E0EEE4F0E0808188608C93AEE4E6
:100CB000B0E0EEE4F0E0808180618C93AEE4B0E0DF
:100CC000EEE4F0E08081887F8C93AEE4B0E0EEE467
:100CD000F0E0808182608C93CF91DF910895DF9363
:100CE000CF9300D0CDB7DEB79A838983ECE4F0E0F0
:100CF00089819A81918380830F900F90CF91DF91AA
:100D00000895DF93CF93CDB7DEB7ECE4F0E08081B8
:100D10009181CF91DF910895DF93CF9300D0CDB72C
:100D2000DEB79A838983E6E4F0E089819A81918332
:100D300080830F900F90CF91DF910895DF93CF9331
:100D400000D0CDB7DEB79A838983EAE4F0E08981E9
:100D50009A81918380830F900F90CF91DF910895B6
:100D6000DF93CF93CDB7DEB7AEE4B0E0EEE4F0E0D2
:100D7000808180648C93A9E5B0E0E9E5F0E08081B2
:100D800080628C93CF91DF910895DF93CF9300D051
:100D9000CDB7DEB78A8319828A81882341F4AEE415
:100DA000B0E0EEE4F0E0808180648C930DC08A8135
:100DB000813041F4AEE4B0E0EEE4F0E080818F7B7E
:100DC0008C9302C081E0898389810F900F90CF912D
:100DD000DF910895DF93CF93CDB7DEB7A9E5B0E0FB
:100DE000E9E5F0E0808180628C93CF91DF910895F6
:100DF000DF93CF93CDB7DEB7E6E4F0E08081918159
:100E0000CF91DF910895DF93CF93CDB7DEB7A9E5FA
:100E1000B0E0E9E5F0E080818F7D8C93CF91DF91A8
:100E20000895DF93CF9300D00F92CDB7DEB79B83A9
:100E30008A8319828A819B81009739F08A819B81FC
:100E4000909374008093730002C082E0898389814B
:100E50000F900F900F90CF91DF9108951F920F92F6
:100E60000FB60F9211242F933F934F935F936F937D
:100E70007F938F939F93AF93BF93EF93FF93DF93F2
:100E8000CF93CDB7DEB780916F009091700000973F
:100E900029F0E0916F00F091700009958091710048
:100EA00090917200009789F1809175009091760081
:100EB00001969093760080937500809175009091D3
:100EC00076009C0140E050E080917700909178009E
:100ED000A0917900B0917A00281739074A075B077B
:100EE000A1F4E0917100F0917200099510927600E2
:100EF0001092750080917B00813039F4A9E5B0E053
:100F0000E9E5F0E080818D7F8C93CF91DF91FF91B7
:100F1000EF91BF91AF919F918F917F916F915F9171
:100F20004F913F912F910F900FBE0F901F901895EA
:100F30001F920F920FB60F9211242F933F934F934E
:100F40005F936F937F938F939F93AF93BF93EF9331
:100F5000FF93DF93CF93CDB7DEB780916D00909173
:100F60006E00009729F0E0916D00F0916E000995F8
:100F7000CF91DF91FF91EF91BF91AF919F918F91B1
:100F80007F916F915F914F913F912F910F900FBE85
:100F90000F901F9018951F920F920FB60F92112469
:100FA0002F933F934F935F936F937F938F939F9371
:100FB000AF93BF93EF93FF93DF93CF93CDB7DEB79C
:100FC0008091730090917400009729F0E091730074
:100FD000F09174000995CF91DF91FF91EF91BF914E
:100FE000AF919F918F917F916F915F914F913F91C1
:100FF0002F910F900FBE0F901F901895AF92BF9238
:10100000CF92DF92EF92FF920F931F93DF93CF93D4
:1010100000D000D000D0CDB7DEB70E9420050E94DE
:10102000300680E29EE40E948C060E9449000E94E5
:1010300004059E012B5F3F4F80E0B9010E947A00BA
:101040008D819E81CC01A0E0B0E000D000D0EDB752
:10105000FEB7319680839183A283B38360E070E012
:1010600080E090E02FEF30E040E050E00F2EFEEE09
:10107000EF2EF2E0FF2EF0E00F2FF0E01F2FF02D0B
:101080000F2EF4ECAF2EF9E0BF2EF0E0CF2EF0E003
:10109000DF2EF02D0E9467010F900F900F900F90A0
:1010A000DC01CB0189839A83AB83BC8389819A81DC
:1010B0000E949E06BECF629FD001739FF001829F67
:1010C000E00DF11D649FE00DF11D929FF00D839FD7
:1010D000F00D749FF00D659FF00D9927729FB00D74
:1010E000E11DF91F639FB00DE11DF91FBD01CF0187
:1010F0001124089597FB092E05260ED057FD04D024
:1011000014D00AD0001C38F45095409530952195A4
:101110003F4F4F4F5F4F0895F6F79095809570952C
:1011200061957F4F8F4F9F4F0895A1E21A2EAA1B02
:10113000BB1BFD010DC0AA1FBB1FEE1FFF1FA21787
:10114000B307E407F50720F0A21BB30BE40BF50B84
:10115000661F771F881F991F1A9469F7609570950D
:10116000809590959B01AC01BD01CF010895F89445
:02117000FFCFAF
:0211720001007A
:00000001FF
