:100000000C942A000C9447000C9447000C94470071
:100010000C9447000C9447000C94C5040C944700C2
:100020000C9447000C9447000C9428040C94920400
:100030000C9447000C9447000C9447000C94470024
:100040000C9447000C9447000C9447000C94470014
:100050000C94470011241FBECFE5D8E0DEBFCDBF12
:1000600010E0A0E6B0E0E2E5FAE002C005900D92F3
:10007000A236B107D9F710E0A2E6B0E001C01D92A8
:10008000A137B107E1F70E94F8040C9427050C94FE
:100090000000DF93CF93CDB7DEB728970FB6F89463
:1000A000DEBF0FBECDBF8A836B834C8319828B81E9
:1000B000883008F0F4C08C81882309F077C08A81E9
:1000C000282F30E038872F838F81988581309105E4
:1000D00059F12F813885223031052CF48F81988594
:1000E000009769F060C02F8138852230310589F191
:1000F0008F8198858330910509F440C054C0ABE3EB
:10010000B0E0EBE3F0E08081482F8B81282F30E0D6
:1001100081E090E0022E02C0880F991F0A94E2F756
:10012000809584238C93BDC0A8E3B0E0E8E3F0E0C1
:100130008081482F8B81282F30E081E090E0022ED3
:1001400002C0880F991F0A94E2F7809584238C934C
:10015000A8C0A5E3B0E0E5E3F0E08081482F8B8103
:10016000282F30E081E090E0022E02C0880F991F16
:100170000A94E2F7809584238C9393C0A2E3B0E0C5
:10018000E2E3F0E08081482F8B81282F30E081E08E
:1001900090E0022E02C0880F991F0A94E2F7809522
:1001A00084238C937EC081E089837BC08C818130E5
:1001B00009F072C08A81282F30E03E832D838D8123
:1001C0009E818130910549F12D813E81223031059A
:1001D0002CF48D819E81009761F05BC02D813E8162
:1001E0002230310571F18D819E8183309105E9F1D5
:1001F00050C0ABE3B0E0EBE3F0E08081482F8B81AF
:10020000282F30E081E090E0022E02C0880F991F75
:100210000A94E2F7842B8C9344C0A8E3B0E0E8E3AF
:10022000F0E08081482F8B81282F30E081E090E042
:10023000022E02C0880F991F0A94E2F7842B8C9338
:1002400030C0A5E3B0E0E5E3F0E08081482F8B818A
:10025000282F30E081E090E0022E02C0880F991F25
:100260000A94E2F7842B8C931CC0A2E3B0E0E2E393
:10027000F0E08081482F8B81282F30E081E090E0F2
:10028000022E02C0880F991F0A94E2F7842B8C93E8
:1002900008C081E0898305C081E0898302C081E0D4
:1002A0008983898128960FB6F894DEBF0FBECDBF33
:1002B000CF91DF910895DF93CF9300D000D00F92BC
:1002C000CDB7DEB78A836B8319828A81282F30E00D
:1002D0003D832C838C819D8181309105D1F02C81CF
:1002E0003D81223031052CF48C819D81009761F095
:1002F0001FC02C813D812230310581F08C819D8190
:100300008330910581F014C0EBE3F0E08B818083B2
:1003100011C0E8E3F0E08B8180830CC0E5E3F0E0FE
:100320008B81808307C0E2E3F0E08B81808302C091
:1003300081E0898389810F900F900F900F900F902B
:10034000CF91DF910895DF93CF93CDB7DEB7279795
:100350000FB6F894DEBF0FBECDBF8A836B835D837B
:100360004C8319828C819D81009709F478C08B8120
:10037000883008F074C08A81282F30E03F832E83B4
:100380004E815F814130510559F18E819F818230CC
:10039000910534F42E813F812115310569F05CC04F
:1003A0004E815F814230510579F18E819F8183308A
:1003B000910509F43DC050C0E9E3F0E08081282FA9
:1003C00030E08B81882F90E0A90102C055954795B8
:1003D0008A95E2F7CA018170EC81FD81808341C07A
:1003E000E6E3F0E08081282F30E08B81882F90E0D9
:1003F000A90102C0559547958A95E2F7CA01817017
:10040000EC81FD8180832DC0E3E3F0E08081282F23
:1004100030E08B81882F90E0A90102C05595479567
:100420008A95E2F7CA018170EC81FD81808319C051
:10043000E0E3F0E08081282F30E08B81882F90E08E
:10044000A90102C0559547958A95E2F7CA018170C6
:10045000EC81FD81808305C081E0898302C081E059
:100460008983898127960FB6F894DEBF0FBECDBF72
:10047000CF91DF910895DF93CF93CDB7DEB7AFE58E
:10048000B0E0EFE5F0E0808180688C93CF91DF9160
:100490000895DF93CF93CDB7DEB7AFE5B0E0EFE5DA
:1004A000F0E080818F778C93CF91DF910895DF9377
:1004B000CF93CDB7DEB7EAE3F0E08FEF8083E7E3D9
:1004C000F0E087E08083E4E3F0E08FEF8083E1E316
:1004D000F0E01082EBE3F0E08FEF8083E8E3F0E000
:1004E0001082E5E3F0E01082E2E3F0E01082CF91C9
:1004F000DF910895DF93CF93CDB7DEB7CF91DF9132
:100500000895DF93CF930F92CDB7DEB78983E2E5ED
:10051000F0E0898180830F90CF91DF910895DF9380
:10052000CF930F92CDB7DEB78983ECE5F0E08981F8
:1005300080830F90CF91DF910895DF93CF93CDB754
:10054000DEB7A3E5B0E0E3E5F0E08081887F8C933F
:10055000A3E5B0E0E3E5F0E0808182608C93CF9189
:10056000DF910895DF93CF9300D00F92CDB7DEB720
:100570009B838A8319828A819B81009739F08A81C3
:100580009B81909365008093640002C082E0898320
:1005900089810F900F900F90CF91DF910895DF9395
:1005A000CF9300D00F92CDB7DEB79B838A83198299
:1005B0008A819B81009739F08A819B8190936300A7
:1005C0008093620002C082E0898389810F900F903E
:1005D0000F90CF91DF910895DF93CF93CDB7DEB722
:1005E00028970FB6F894DEBF0FBECDBF6A837B831A
:1005F0008C839D835F834E83288719828E819F81A0
:10060000009709F445C0A3E5B0E0E3E5F0E08081A0
:100610008F7B8C93A3E5B0E0E3E5F0E08081886018
:100620008C93A9E5B0E0E9E5F0E0808182608C93ED
:10063000ECE5F0E08AEF8083A3E5B0E0E3E5F0E0ED
:100640008081887F8C93A3E5B0E0E3E5F0E08081D2
:1006500082608C938E819F81909367008093660067
:100660008A819B81AC81BD81880F991FAA1FBB1F06
:10067000880F991FAA1FBB1F80936C0090936D0079
:10068000A0936E00B0936F0088858093700002C0C5
:1006900082E08983898128960FB6F894DEBF0FBE69
:1006A000CDBFCF91DF910895DF93CF93CDB7DEB764
:1006B000AEE4B0E0EEE4F0E08081887F8C93AEE4BD
:1006C000B0E0EEE4F0E0808182608C93CF91DF9126
:1006D0000895DF93CF9300D0CDB7DEB79A83898397
:1006E000ECE4F0E089819A81918380830F900F90F0
:1006F000CF91DF910895DF93CF93CDB7DEB7ECE4D0
:10070000F0E080819181CF91DF910895DF93CF93C5
:1007100000D0CDB7DEB79A838983E6E4F0E0898123
:100720009A81918380830F900F90CF91DF910895EC
:10073000DF93CF9300D0CDB7DEB79A838983EAE405
:10074000F0E089819A81918380830F900F90CF91FF
:10075000DF910895DF93CF93CDB7DEB7AEE4B0E07D
:10076000EEE4F0E0808180648C93A9E5B0E0E9E5F7
:10077000F0E0808180628C93CF91DF910895DF93C8
:10078000CF9300D0CDB7DEB78A8319828A818823C0
:1007900041F4AEE4B0E0EEE4F0E0808180648C935C
:1007A0000DC08A81813041F4AEE4B0E0EEE4F0E0C7
:1007B00080818F7B8C9302C081E0898389810F9037
:1007C0000F90CF91DF910895DF93CF93CDB7DEB730
:1007D000A9E5B0E0E9E5F0E0808180628C93CF91FB
:1007E000DF910895DF93CF93CDB7DEB7E6E4F0E075
:1007F00080819181CF91DF910895DF93CF93CDB721
:10080000DEB7A9E5B0E0E9E5F0E080818F7D8C936B
:10081000CF91DF910895DF93CF9300D00F92CDB7A2
:10082000DEB79B838A8319828A819B81009739F086
:100830008A819B81909369008093680002C082E066
:10084000898389810F900F900F90CF91DF91089548
:100850001F920F920FB60F9211242F933F934F9335
:100860005F936F937F938F939F93AF93BF93EF9318
:10087000FF93DF93CF93CDB7DEB780916400909163
:100880006500009729F0E0916400F09165000995FA
:100890008091660090916700009789F180916A00CD
:1008A00090916B00019690936B0080936A00809109
:1008B0006A0090916B009C0140E050E080916C00D8
:1008C00090916D00A0916E00B0916F0028173907CC
:1008D0004A075B07A1F4E0916600F0916700099573
:1008E00010926B0010926A0080917000813039F490
:1008F000A9E5B0E0E9E5F0E080818D7F8C93CF91B0
:10090000DF91FF91EF91BF91AF919F918F917F9177
:100910006F915F914F913F912F910F900FBE0F906C
:100920001F9018951F920F920FB60F9211242F93BC
:100930003F934F935F936F937F938F939F93AF9367
:10094000BF93EF93FF93DF93CF93CDB7DEB7809143
:10095000620090916300009729F0E0916200F091AD
:1009600063000995CF91DF91FF91EF91BF91AF9116
:100970009F918F917F916F915F914F913F912F91B7
:100980000F900FBE0F901F9018951F920F920FB6E9
:100990000F9211242F933F934F935F936F937F9305
:1009A0008F939F93AF93BF93EF93FF93DF93CF9377
:1009B000CDB7DEB78091680090916900009729F06B
:1009C000E0916800F09169000995CF91DF91FF9166
:1009D000EF91BF91AF919F918F917F916F915F91B7
:1009E0004F913F912F910F900FBE0F901F90189530
:1009F000DF93CF93CDB7DEB70E9457022BE035E0EF
:100A000068EE73E080E090E0A90120E00E94EC0233
:100A10000E943B02FFCFDF93CF93CDB7DEB790911B
:100A2000600082E061E0492F0E94490080916000EF
:100A3000882321F481E08093600006C080916000EB
:100A4000813011F410926000CF91DF910895F894F5
:020A5000FFCFD6
:020A52000100A1
:00000001FF
