:100000000C942A000C940E110C9441110C94741150
:100010000C9447000C9447000C94A3140C944700D4
:100020000C9447000C9447000C9406140C94701424
:100030000C9447000C9447000C9447000C94470024
:100040000C9447000C9447000C9447000C94470014
:100050000C94470011241FBECFE5D8E0DEBFCDBF12
:1000600010E0A0E6B0E0E8ECFBE202C005900D92E3
:10007000A038B107D9F710E0A0E8B0E001C01D92A8
:10008000AA39B107E1F70E94D6140C94E2150C943A
:100090000000EF92FF920F931F937B018C0120E0F1
:1000A00030E040E05FE40E94F50388238CF0C80153
:1000B000B70120E030E040E05FE40E94C1010E940F
:1000C00055049B01AC01205030404040504806C0D0
:1000D000C801B7010E9455049B01AC01B901CA01D6
:1000E0001F910F91FF90EF900895A0E0B0E0EBE733
:1000F000F0E00C94AB15DC012B01FA019C919230DD
:1001000008F439C1EB018881823008F433C194309E
:1001100069F4843009F02FC111969C91119789815F
:10012000981709F428C1A8E7B0E025C1843009F484
:1001300021C18230A9F4923009F01DC19A01AD01AC
:1001400088E0EA010990AE01E90109929E0181501F
:10015000C1F7E201898111969C918923818308C1AD
:10016000923009F407C112962D903C901397EB0141
:100170008A819B811496AD90BD90CD90DC901797AD
:10018000EC80FD800E811F819101281B390BB90184
:1001900037FF04C066277727621B730B6032710537
:1001A0000CF061C0121613066CF537014801062EDB
:1001B00004C096948794779467940A94D2F721E0C8
:1001C00030E040E050E004C0220F331F441F551FB1
:1001D0006A95D2F721503040404050402E213F21B7
:1001E00040235123211531054105510521F021E01E
:1001F00030E040E050E079018A01E628F72808293C
:1002000019293CC0232BD1F1260E371E350146019A
:10021000062E04C096948794779467940A94D2F734
:1002200021E030E040E050E004C0220F331F441FC3
:10023000551F6A95D2F721503040404050402A2146
:100240003B214C215D21211531054105510521F04E
:1002500021E030E040E050E059016A01A628B728CB
:10026000C828D9280BC0821593052CF01C01AA249C
:10027000BB24650103C0EE24FF24870111969C91E5
:10028000D20111968C91981709F445C0992339F041
:10029000A80197012A193B094C095D0906C0A6016E
:1002A00095012E193F09400B510B57FD08C01182D3
:1002B0003382228224833583468357831DC081E0A5
:1002C00081833382228288279927DC01821B930B4A
:1002D000A40BB50B84839583A683B7830DC0220F2F
:1002E000331F441F551F24833583468357838281E0
:1002F000938101979383828324813581468157813D
:10030000DA01C9010197A109B1098F5F9F4FAF4F72
:10031000BF4328F30BC0918333822282EA0CFB1C7B
:100320000C1D1D1DE482F5820683178383E0808304
:10033000248135814681578157FF1AC0C901AA27F8
:1003400097FDA095BA2F81709070A070B0705695EF
:10035000479537952795822B932BA42BB52B848318
:100360009583A683B7838281938101969383828349
:10037000DF0101C0D201CD01CDB7DEB7E2E10C94BF
:10038000C715A0E2B0E0E7ECF1E00C94B715698383
:100390007A838B839C832D833E834F835887E9E048
:1003A000EE2EF12CEC0EFD1ECE010196B7010E943F
:1003B0007E058E010F5E1F4FCE010596B8010E948B
:1003C0007E058A8991E089278A8BC701B801AE0131
:1003D000475E5F4F0E9475000E94A904A096E6E068
:1003E0000C94D315A0E2B0E0E8EFF1E00C94B7155F
:1003F00069837A838B839C832D833E834F835887C5
:10040000F9E0EF2EF12CEC0EFD1ECE010196B701A6
:100410000E947E058E010F5E1F4FCE010596B8012A
:100420000E947E05C701B801AE01475E5F4F0E9482
:1004300075000E94A904A096E6E00C94D315A0E2F2
:10044000B0E0E5E2F2E00C94AB1569837A838B832C
:100450009C832D833E834F835887CE010196BE0136
:10046000675F7F4F0E947E05CE010596BE016F5EDD
:100470007F4F0E947E059985923088F0898982306D
:10048000C8F0943019F4823051F404C0843029F457
:10049000923081F488E790E0C6C0923049F420E0C1
:1004A0009A858A89981321E02A87CE010996BBC0D4
:1004B000823049F420E09A858A89981321E02A8BBA
:1004C000CE014196B0C02D843E844F8458886D88FB
:1004D0007E888F88988CEE24FF248701AA24BB2471
:1004E000650140E050E060E070E0E0E0F0E0C10174
:1004F00081709070892BE9F0E60CF71C081D191D1E
:100500009A01AB012A0D3B1D4C1D5D1D80E090E062
:10051000A0E0B0E0E614F7040805190520F481E036
:1005200090E0A0E0B0E0BA01A901480F591F6A1F8E
:100530007B1FAA0CBB1CCC1CDD1C97FE08C081E0F5
:1005400090E0A0E0B0E0A82AB92ACA2ADB2A3196B6
:10055000E032F10549F0660C771C881C991C569412
:10056000479437942794C3CFFA85EA892B893C892D
:100570008B859C85280F391F2E5F3F4F17C0CA01FE
:1005800081709070892B61F016950795F794E79428
:1005900080E090E0A0E0B0E8E82AF92A0A2B1B2BC3
:1005A00076956795579547952F5F3F4F77FDE7CF36
:1005B0000CC0440F551F661F771F17FD4160EE0CDE
:1005C000FF1C001F111F21503040403090E05907A0
:1005D00090E0690790E4790760F32B8F3C8FDB0193
:1005E000CA018F779070A070B07080349105A1051A
:1005F000B10561F447FD0AC0E114F10401051105DC
:1006000029F0405C5F4F6F4F7F4F40781A8EFE1786
:1006100011F081E08A8F4D8F5E8F6F8F78A383E01A
:10062000898FCE0149960E94A904A096E2E10C941C
:10063000C715A8E1B0E0EFE1F3E00C94B3156983CE
:100640007A838B839C832D833E834F835887B9E0C5
:10065000EB2EF12CEC0EFD1ECE010196B7010E948F
:100660007E058E010F5E1F4FCE010596B8010E94D8
:100670007E052985223008F47EC03989323010F495
:10068000B8017CC08A859A8989278A87243011F02D
:10069000223031F4231709F06EC068E770E06EC0B5
:1006A000343039F41D861E861F86188A1C861B86E8
:1006B00004C0323021F484E08987B7015FC02B8504
:1006C0003C858B899C89281B390B3C872B87ED84C3
:1006D000FE840F851889AD88BE88CF88D88CEA142F
:1006E000FB040C051D0540F4EE0CFF1C001F111F40
:1006F000215030403C872B8720E030E040E050E044
:1007000080E090E0A0E0B0E460E070E0EA14FB0478
:100710000C051D0540F0282B392B4A2B5B2BEA18C2
:10072000FB080C091D09B695A79597958795EE0CC2
:10073000FF1C001F111F6F5F7F4F6F31710531F775
:10074000DA01C9018F779070A070B0708034910584
:10075000A105B10561F427FD0AC0E114F10401050A
:10076000110529F0205C3F4F4F4F5F4F20782D87B8
:100770003E874F87588BBE01675F7F4FCB010E943A
:10078000A9046896EAE00C94CF15A8E1B0E0EBEC80
:10079000F3E00C94B71569837A838B839C832D8354
:1007A0003E834F83588789E0E82EF12CEC0EFD1E26
:1007B000CE010196B7010E947E058E010F5E1F4F8C
:1007C000CE010596B8010E947E058985823040F0F1
:1007D0008989823028F0C701B8010E94F60501C05E
:1007E0008FEF6896E6E00C94D315A8E1B0E0EBEF4C
:1007F000F3E00C94B71569837A838B839C832D83F4
:100800003E834F83588789E0E82EF12CEC0EFD1EC5
:10081000CE010196B7010E947E058E010F5E1F4F2B
:10082000CE010596B8010E947E058985823040F090
:100830008989823028F0C701B8010E94F60501C0FD
:100840008FEF6896E6E00C94D315A8E1B0E0EBE2F8
:10085000F4E00C94B71569837A838B839C832D8392
:100860003E834F83588789E0E82EF12CEC0EFD1E65
:10087000CE010196B7010E947E058E010F5E1F4FCB
:10088000CE010596B8010E947E058985823040F030
:100890008989823028F0C701B8010E94F60501C09D
:1008A00081E06896E6E00C94D315ACE0B0E0EBE5AF
:1008B000F4E00C94BB1569837A838B839C83CE010F
:1008C0000196BE016B5F7F4F0E947E058D81823055
:1008D00061F1823050F1843021F48E81882351F10E
:1008E0002EC02F81388537FD20C06E812F31310514
:1008F0001CF06623F9F023C08EE190E0821B930B7D
:1009000029853A854B855C8504C056954795379572
:1009100027958A95D2F76623B1F05095409530958A
:1009200021953F4F4F4F5F4F0EC020E030E040E039
:1009300050E009C02FEF3FEF4FEF5FE704C020E02A
:1009400030E040E050E8B901CA012C96E2E00C9496
:10095000D715DF92EF92FF920F931F93FC01E48073
:10096000F58006811781D1808081823048F480E053
:1009700090E0A0E1B0E0E82AF92A0A2B1B2BA5C0E1
:10098000843009F49FC0823021F4EE24FF248701D3
:1009900005C0E114F1040105110519F4E0E0F0E0EF
:1009A00096C0628173819FEF623879070CF05BC05B
:1009B00022E83FEF261B370B2A3131052CF020E0CF
:1009C00030E040E050E02AC0B801A701022E04C088
:1009D00076956795579547950A94D2F781E090E010
:1009E000A0E0B0E004C0880F991FAA1FBB1F2A9582
:1009F000D2F70197A109B1098E219F21A023B1232C
:100A00000097A105B10521F081E090E0A0E0B0E001
:100A10009A01AB01282B392B4A2B5B2BDA01C90138
:100A20008F779070A070B07080349105A105B105EA
:100A300039F427FF09C0205C3F4F4F4F5F4F04C080
:100A4000215C3F4F4F4F5F4FE0E0F0E02030A0E0EF
:100A50003A07A0E04A07A0E45A0710F0E1E0F0E00E
:100A600079018A0127C06038710564F5FB01E158FE
:100A7000FF4FD801C7018F779070A070B07080349D
:100A80009105A105B10539F4E7FE0DC080E490E0C1
:100A9000A0E0B0E004C08FE390E0A0E0B0E0E80E9A
:100AA000F91E0A1F1B1F17FF05C016950795F7941F
:100AB000E794319687E016950795F794E7948A9521
:100AC000D1F705C0EE24FF248701EFEFF0E06E2F91
:100AD000679566276795902F9F77D794DD24D794E5
:100AE0008E2F8695492F462B582F5D29B701CA01B5
:100AF0001F910F91FF90EF90DF900895FC01DB01B3
:100B0000408151812281622F6F7770E0221F22275E
:100B1000221F9381892F880F822B282F30E0991F65
:100B20009927991F11969C93119721153105A9F5C5
:100B3000411551056105710511F482E037C082E865
:100B40009FEF13969C938E9312979A01AB0167E0E7
:100B5000220F331F441F551F6A95D1F783E08C93F2
:100B60000DC0220F331F441F551F12968D919C916B
:100B70001397019713969C938E931297203080E0E1
:100B8000380780E0480780E4580758F314962D93FF
:100B90003D934D935C93179708952F3F310579F45A
:100BA000411551056105710519F484E08C93089590
:100BB00064FF03C081E08C9312C01C9210C02F57B9
:100BC000304013963C932E93129783E08C9387E0EA
:100BD000440F551F661F771F8A95D1F770641496CE
:100BE0004D935D936D937C93179708951F93DC014C
:100BF000FB019C91923008F447C08081823008F458
:100C000043C0943051F411961C91843099F5818140
:100C1000682F70E0611B71093FC0843021F0923071
:100C200031F48230B9F18181882389F12DC0119688
:100C30001C9111978230F1F081811817D9F4129626
:100C40002D913C911397828193818217930794F0A1
:100C500028173907BCF014968D919D910D90BC9189
:100C6000A02D2481358146815781281739074A07ED
:100C70005B0718F4112341F00AC082179307A407F9
:100C8000B50740F4112319F061E070E005C06FEF83
:100C90007FEF02C060E070E0CB011F910895DF9309
:100CA000CF93CDB7DEB76D970FB6F894DEBF0FBE0A
:100CB000CDBF8D8F81E060E040E00E949B0C81E021
:100CC00061E040E00E949B0C8D8D882F90E0807148
:100CD0009070959587959595879595958795959518
:100CE0008795982F80E064E0492F0E949B0C8D8DA2
:100CF000882F90E08072907095958795959587954F
:100D0000959587959595879595958795982F80E0EA
:100D100065E0492F0E949B0C8D8D882F90E0807498
:100D20009070082E892F000C881F990B000C881FCB
:100D3000991F982F80E066E0492F0E949B0C8D8DB3
:100D4000982F991F9927991F80E067E0492F0E94EB
:100D50009B0C81E062E041E00E949B0C80E090E00F
:100D6000A0E8BFE3898F9A8FAB8FBC8F698D7A8D96
:100D70008B8D9C8D20E030E04AEF54E40E941F02EE
:100D8000DC01CB018D8B9E8BAF8BB88F6D897E89FB
:100D90008F89988D20E030E040E85FE30E942504D1
:100DA00088232CF481E090E09C8B8B8B3FC06D8975
:100DB0007E898F89988D20E03FEF4FE757E40E94AE
:100DC000C50318164CF5698D7A8D8B8D9C8D20E0AE
:100DD00030E040E251E40E941F02DC01CB01BC0183
:100DE000CD010E944900DC01CB019C8B8B8B0FC095
:100DF00088EC90E09A8B898B89899A890197F1F721
:100E00009A8B898B8B899C8901979C8B8B8B8B8987
:100E10009C89009769F714C06D897E898F89988DA8
:100E20000E944900DC01CB019C8B8B8B8B899C89B8
:100E3000988B8F878F8598890197F1F7988B8F878B
:100E400081E062E040E00E949B0C8D8D982F9170B4
:100E500080E064E0492F0E949B0C8D8D882F90E0EC
:100E60008270907095958795982F80E065E0492F66
:100E70000E949B0C8D8D882F90E0847090709595CA
:100E8000879595958795982F80E066E0492F0E9479
:100E90009B0C8D8D882F90E088709070959587952C
:100EA0009595879595958795982F80E067E0492FD0
:100EB0000E949B0C81E062E041E00E949B0C80E07C
:100EC00090E0A0E8BFE38B879C87AD87BE876B85EA
:100ED0007C858D859E8520E030E04AEF54E40E94B9
:100EE0001F02DC01CB018F839887A987BA876F81A6
:100EF000788589859A8520E030E040E85FE30E94AC
:100F0000250488232CF481E090E09E838D833FC0EC
:100F10006F81788589859A8520E03FEF4FE757E418
:100F20000E94C50318164CF56B857C858D859E85C2
:100F300020E030E040E251E40E941F02DC01CB01DE
:100F4000BC01CD010E944900DC01CB019E838D8351
:100F50000FC088EC90E09C838B838B819C810197F0
:100F6000F1F79C838B838D819E8101979E838D8376
:100F70008D819E81009769F714C06F81788589857E
:100F80009A850E944900DC01CB019E838D838D816F
:100F90009E819A83898389819A810197F1F79A8347
:100FA000898381E062E040E00E949B0C6D960FB661
:100FB000F894DEBF0FBECDBFCF91DF910895DF93D0
:100FC000CF93CDB7DEB76D970FB6F894DEBF0FBEE7
:100FD000CDBF8D8F81E060E041E00E949B0C81E0FD
:100FE00061E040E00E949B0C8D8D882F90E0807125
:100FF00090709595879595958795959587959595F5
:101000008795982F80E064E0492F0E949B0C8D8D7E
:10101000882F90E08072907095958795959587952B
:10102000959587959595879595958795982F80E0C7
:1010300065E0492F0E949B0C8D8D882F90E0807475
:101040009070082E892F000C881F990B000C881FA8
:10105000991F982F80E066E0492F0E949B0C8D8D90
:10106000982F991F9927991F80E067E0492F0E94C8
:101070009B0C81E062E041E00E949B0C80E090E0EC
:10108000A0E8BFE3898F9A8FAB8FBC8F698D7A8D73
:101090008B8D9C8D20E030E04AEF54E40E941F02CB
:1010A000DC01CB018D8B9E8BAF8BB88F6D897E89D8
:1010B0008F89988D20E030E040E85FE30E942504AE
:1010C00088232CF481E090E09C8B8B8B3FC06D8952
:1010D0007E898F89988D20E03FEF4FE757E40E948B
:1010E000C50318164CF5698D7A8D8B8D9C8D20E08B
:1010F00030E040E251E40E941F02DC01CB01BC0160
:10110000CD010E944900DC01CB019C8B8B8B0FC071
:1011100088EC90E09A8B898B89899A890197F1F7FD
:101120009A8B898B8B899C8901979C8B8B8B8B8964
:101130009C89009769F714C06D897E898F89988D85
:101140000E944900DC01CB019C8B8B8B8B899C8995
:10115000988B8F878F8598890197F1F7988B8F8768
:1011600081E062E040E00E949B0C8D8D982F917091
:1011700080E064E0492F0E949B0C8D8D882F90E0C9
:101180008270907095958795982F80E065E0492F43
:101190000E949B0C8D8D882F90E0847090709595A7
:1011A000879595958795982F80E066E0492F0E9456
:1011B0009B0C8D8D882F90E0887090709595879509
:1011C0009595879595958795982F80E067E0492FAD
:1011D0000E949B0C81E062E041E00E949B0C80E059
:1011E00090E0A0E8BFE38B879C87AD87BE876B85C7
:1011F0007C858D859E8520E030E04AEF54E40E9496
:101200001F02DC01CB018F839887A987BA876F8182
:10121000788589859A8520E030E040E85FE30E9488
:10122000250488232CF481E090E09E838D833FC0C9
:101230006F81788589859A8520E03FEF4FE757E4F5
:101240000E94C50318164CF56B857C858D859E859F
:1012500020E030E040E251E40E941F02DC01CB01BB
:10126000BC01CD010E944900DC01CB019E838D832E
:101270000FC088EC90E09C838B838B819C810197CD
:10128000F1F79C838B838D819E8101979E838D8353
:101290008D819E81009769F714C06F81788589855B
:1012A0009A850E944900DC01CB019E838D838D814C
:1012B0009E819A83898389819A810197F1F79A8324
:1012C000898381E062E040E00E949B0C6D960FB63E
:1012D000F894DEBF0FBECDBFCF91DF910895DF93AD
:1012E000CF9300D00F92CDB7DEB79B838A8319824C
:1012F00015C08981803121F481E060E00E94090BF2
:101300008981282F30E08A819B81FC01E20FF31F45
:1013100080810E94DF0789818F5F89838981282FDF
:1013200030E08A819B81FC01E20FF31F80818823DA
:1013300001F70F900F900F90CF91DF910895DF93F9
:10134000CF93CDB7DEB7A6970FB6F894DEBF0FBE2A
:10135000CDBF80E090E0A0E2B2E48BA39CA3ADA35C
:10136000BEA36BA17CA18DA19EA120E030E04AEF3D
:1013700054E40E941F02DC01CB018F8F98A3A9A324
:10138000BAA36F8D78A189A19AA120E030E040E84E
:101390005FE30E94250488232CF481E090E09E8F77
:1013A0008D8F3FC06F8D78A189A19AA120E03FEF7A
:1013B0004FE757E40E94C50318164CF56BA17CA1BA
:1013C0008DA19EA120E030E040E251E40E941F0286
:1013D000DC01CB01BC01CD010E944900DC01CB0145
:1013E0009E8F8D8F0FC088EC90E09C8F8B8F8B8DA4
:1013F0009C8D0197F1F79C8F8B8F8D8D9E8D019722
:101400009E8F8D8F8D8D9E8D009769F714C06F8D87
:1014100078A189A19AA10E944900DC01CB019E8F8D
:101420008D8F8D8D9E8D9A8F898F898D9A8D019745
:10143000F1F79A8F898F82E20E944F0680E064E084
:1014400040E00E949B0C80E065E040E00E949B0C25
:1014500080E066E040E00E949B0C80E067E041E0B5
:101460000E949B0C81E062E041E00E949B0C80E0C6
:1014700090E0A0E2B2E48D8B9E8BAF8BB88F6D892C
:101480007E898F89988D2BEA3AEA4AE250E40E94DD
:101490001F02DC01CB01898B9A8BAB8BBC8B6989DA
:1014A0007A898B899C8920E030E040E85FE30E94E4
:1014B000250488231CF481E0888B91C069897A898E
:1014C0008B899C8920E030E04FE753E40E94C503FC
:1014D00018160CF07BC06D897E898F89988D20E06D
:1014E00030E04AE754E40E941903DC01CB018C8709
:1014F0009D87AE87BF876C857D858E859F8520E023
:1015000030E04AEF54E40E941F02DC01CB018887DF
:101510009987AA87BB87688579858A859B8520E01E
:1015200030E040E85FE30E94250488232CF481E04A
:1015300090E09F838E833FC0688579858A859B85EF
:1015400020E03FEF4FE757E40E94C50318164CF523
:101550006C857D858E859F8520E030E040E251E4FA
:101560000E941F02DC01CB01BC01CD010E94490099
:10157000DC01CB019F838E830FC088EC90E09D83BC
:101580008C838C819D810197F1F79D838C838E8163
:101590009F8101979F838E838E819F81009769F73A
:1015A00024C0688579858A859B850E944900DC0175
:1015B000CB019F838E838E819F819B838A838A81C7
:1015C0009B810197F1F79B838A830FC069897A8990
:1015D0008B899C890E944900DC01CB01888B88891A
:1015E000898389818A95F1F7898381E062E040E00F
:1015F0000E949B0C8CE00E944F0681E00E944F06E7
:10160000A6960FB6F894DEBF0FBECDBFCF91DF9187
:101610000895DF93CF9300D00F92CDB7DEB78A83C2
:101620006B838A81882319F48B81898306C08A8120
:10163000813019F48B81805C8983898180580E9474
:101640004F060F900F900F90CF91DF910895DF9389
:10165000CF93CDB7DEB727970FB6F894DEBF0FBE96
:10166000CDBF9C838B836D834E832F838D81882F89
:1016700090E0880F991F880F991F880F991F8A8300
:101680008A81805C0E944F0619820EC08981282FB2
:1016900030E08B819C81FC01E20FF31F80810E946E
:1016A000DF0789818F5F89838981883078F38E8114
:1016B0006F810E94090B8D810E94DF0727960FB66C
:1016C000F894DEBF0FBECDBFCF91DF9108950F9389
:1016D0001F93DF93CF93CDB7DEB760970FB6F89423
:1016E000DEBF0FBECDBF6B877C878D879E8787E06F
:1016F0008A8319825BC08B859C85AD85BE858A30C7
:101700009105A105B10558F48A81282F30E04B8559
:10171000CE010396FC01E20FF31F40834BC08A8188
:10172000082F10E08B859C85AD85BE852AE030E0D2
:1017300040E050E0BC01CD010E947515DC01CB01F9
:10174000282FCE010396FC01E00FF11F20838B852B
:101750009C85AD85BE852AE030E040E050E0BC01CC
:10176000CD010E947515DA01C9018B879C87AD8771
:10177000BE878B859C85AD85BE858A309105A10588
:10178000B10570F48A8181508A838A81282F30E0E4
:101790004B85CE010396FC01E20FF31F40830AC084
:1017A0008A8181508A8389818F5F8983898188308A
:1017B00008F4A1CF8A8189837CC08981282F30E0F9
:1017C000CE010396FC01E20FF31F8081282F30E049
:1017D000388B2F878F8598898430910509F44FC005
:1017E0002F85388925303105D4F48F85988981304B
:1017F0009105C9F12F853889223031052CF48F8568
:101800009889009761F152C02F85388922303105BF
:1018100071F18F8598898330910569F147C02F85D3
:10182000388927303105B9F18F859889883091053D
:101830005CF42F8538892530310529F18F85988909
:101840008630910521F132C02F8538892830310545
:1018500031F18F8598898930910529F127C080E37E
:101860000E94DF0723C081E30E94DF071FC082E3DD
:101870000E94DF071BC083E30E94DF0717C084E3D9
:101880000E94DF0713C085E30E94DF070FC086E3D5
:101890000E94DF070BC087E30E94DF0707C088E3D1
:1018A0000E94DF0703C089E30E94DF0789818F5F01
:1018B00089838981883008F480CF60960FB6F894C8
:1018C000DEBF0FBECDBFCF91DF911F910F91089565
:1018D000DF93CF9300D000D00F92CDB7DEB79C83BB
:1018E0008B836D838D81882F90E0880F991F880FDF
:1018F000991F880F991F8A838A81805C0E944F06F6
:1019000019820EC08981282F30E08B819C81FC01D7
:10191000E20FF31F80810E94DF0789818F5F898337
:101920008981883078F30F900F900F900F900F906F
:10193000CF91DF910895DF93CF93CDB7DEB728978E
:101940000FB6F894DEBF0FBECDBF8A836B834C8386
:1019500019828B81883008F0F4C08C81882309F0CB
:1019600077C08A81282F30E038872F838F81988530
:101970008130910559F12F813885223031052CF4C1
:101980008F819885009769F060C02F81388522305B
:10199000310589F18F8198858330910509F440C024
:1019A00054C0ABE3B0E0EBE3F0E08081482F8B81E3
:1019B000282F30E081E090E0022E02C0880F991FAE
:1019C0000A94E2F7809584238C93BDC0A8E3B0E02D
:1019D000E8E3F0E08081482F8B81282F30E081E020
:1019E00090E0022E02C0880F991F0A94E2F78095BA
:1019F00084238C93A8C0A5E3B0E0E5E3F0E0808108
:101A0000482F8B81282F30E081E090E0022E02C029
:101A1000880F991F0A94E2F7809584238C9393C0D2
:101A2000A2E3B0E0E2E3F0E08081482F8B81282F31
:101A300030E081E090E0022E02C0880F991F0A94E6
:101A4000E2F7809584238C937EC081E089837BC0FC
:101A50008C81813009F072C08A81282F30E03E836A
:101A60002D838D819E818130910549F12D813E81AB
:101A7000223031052CF48D819E81009761F05BC08E
:101A80002D813E812230310571F18D819E8183301F
:101A90009105E9F150C0ABE3B0E0EBE3F0E0808109
:101AA000482F8B81282F30E081E090E0022E02C089
:101AB000880F991F0A94E2F7842B8C9344C0A8E303
:101AC000B0E0E8E3F0E08081482F8B81282F30E000
:101AD00081E090E0022E02C0880F991F0A94E2F77D
:101AE000842B8C9330C0A5E3B0E0E5E3F0E0808187
:101AF000482F8B81282F30E081E090E0022E02C039
:101B0000880F991F0A94E2F7842B8C931CC0A2E3E0
:101B1000B0E0E2E3F0E08081482F8B81282F30E0B5
:101B200081E090E0022E02C0880F991F0A94E2F72C
:101B3000842B8C9308C081E0898305C081E0898370
:101B400002C081E08983898128960FB6F894DEBFB0
:101B50000FBECDBFCF91DF910895DF93CF9300D01B
:101B600000D00F92CDB7DEB78A836B8319828A814A
:101B7000282F30E03D832C838C819D81813091051D
:101B8000D1F02C813D81223031052CF48C819D8156
:101B9000009761F01FC02C813D812230310581F01A
:101BA0008C819D818330910581F014C0EBE3F0E0DE
:101BB0008B81808311C0E8E3F0E08B8180830CC0CF
:101BC000E5E3F0E08B81808307C0E2E3F0E08B8106
:101BD000808302C081E0898389810F900F900F90EC
:101BE0000F900F90CF91DF910895DF93CF93CDB7F2
:101BF000DEB727970FB6F894DEBF0FBECDBF8A833E
:101C00006B835D834C8319828C819D81009709F4DD
:101C100078C08B81883008F074C08A81282F30E02A
:101C20003F832E834E815F814130510559F18E8172
:101C30009F818230910534F42E813F812115310539
:101C400069F05CC04E815F814230510579F18E812F
:101C50009F818330910509F43DC050C0E9E3F0E075
:101C60008081282F30E08B81882F90E0A90102C06D
:101C7000559547958A95E2F7CA018170EC81FD81FF
:101C8000808341C0E6E3F0E08081282F30E08B8143
:101C9000882F90E0A90102C0559547958A95E2F7F3
:101CA000CA018170EC81FD8180832DC0E3E3F0E007
:101CB0008081282F30E08B81882F90E0A90102C01D
:101CC000559547958A95E2F7CA018170EC81FD81AF
:101CD000808319C0E0E3F0E08081282F30E08B8121
:101CE000882F90E0A90102C0559547958A95E2F7A3
:101CF000CA018170EC81FD81808305C081E0898308
:101D000002C081E08983898127960FB6F894DEBFEF
:101D10000FBECDBFCF91DF910895DF93CF93CDB7A5
:101D2000DEB7A5E5B0E0E5E5F0E0808182608C9368
:101D3000A5E5B0E0E5E5F0E0808181608C93ABE55E
:101D4000B0E0EBE5F0E0808180648C93CF91DF918F
:101D50000895DF93CF93CDB7DEB7A5E5B0E0E5E515
:101D6000F0E0808188608C93A5E5B0E0E5E5F0E0E7
:101D700080818B7F8C93ABE5B0E0EBE5F0E0808178
:101D800080688C93CF91DF910895DF93CF93CDB787
:101D9000DEB7A4E5B0E0E4E5F0E080818F7B8C93D2
:101DA000ABE5B0E0EBE5F0E080818F7D8C93CF91E7
:101DB000DF910895DF93CF9300D0CDB7DEB78A834C
:101DC00019828A818630B8F08A818730A0F4ABE529
:101DD000B0E0EBE5F0E08081482F8A81282F30E0E9
:101DE00081E090E0022E02C0880F991F0A94E2F76A
:101DF000842B8C9302C081E0898389810F900F909E
:101E0000CF91DF910895DF93CF9300D0CDB7DEB7A8
:101E10008A8319828A818630C0F08A818730A8F44B
:101E2000ABE5B0E0EBE5F0E08081482F8A81282F18
:101E300030E081E090E0022E02C0880F991F0A94E2
:101E4000E2F7809584238C9302C081E089838981A5
:101E50000F900F90CF91DF910895DF93CF9300D033
:101E600000D0CDB7DEB78A8319828A81282F30E06F
:101E70003C832B838B819C8182309105A1F12B8146
:101E80003C812330310534F48B819C818130910574
:101E9000C9F147C02B813C812330310531F08B8162
:101EA0009C818430910581F03CC0A5E5B0E0E5E57A
:101EB000F0E0808182608C93A5E5B0E0E5E5F0E09C
:101EC00080818E7F8C932FC0A5E5B0E0E5E5F0E042
:101ED00080818D7F8C93A5E5B0E0E5E5F0E0808121
:101EE00081608C9320C0A5E5B0E0E5E5F0E080815D
:101EF0008D7F8C93A5E5B0E0E5E5F0E08081816021
:101F00008C9311C0A5E5B0E0E5E5F0E080818D7F20
:101F10008C93A5E5B0E0E5E5F0E080818E7F8C93C1
:101F200002C081E0898389810F900F900F900F90FC
:101F3000CF91DF910895DF93CF9300D000D0CDB73C
:101F4000DEB78A8319828A81282F30E03C832B8375
:101F50008B819C8182309105A1F12B813C812330C2
:101F6000310534F48B819C8181309105C9F147C0E2
:101F70002B813C812330310531F08B819C81843071
:101F8000910581F03CC0A5E5B0E0E5E5F0E0808199
:101F900088608C93A5E5B0E0E5E5F0E080818B7F7B
:101FA0008C932FC0A5E5B0E0E5E5F0E08081877F68
:101FB0008C93A5E5B0E0E5E5F0E0808184608C934A
:101FC00020C0A5E5B0E0E5E5F0E08081877F8C9357
:101FD000A5E5B0E0E5E5F0E0808184608C9311C078
:101FE000A5E5B0E0E5E5F0E08081877F8C93A5E58D
:101FF000B0E0E5E5F0E080818B7F8C9302C081E06A
:10200000898389810F900F900F900F90CF91DF916E
:102010000895DF93CF9300D000D0CDB7DEB78A8389
:1020200019828A81282F30E03C832B838B819C810D
:102030008330910531F02B813C812430310549F00A
:1020400010C0A4E5B0E0E4E5F0E080818F7B8C93E4
:102050000AC0A4E5B0E0E4E5F0E0808180648C9300
:1020600002C081E0898389810F900F900F900F90BB
:10207000CF91DF910895DF93CF9300D000D0CDB7FB
:10208000DEB78A8319828A81282F30E03C832B8334
:102090008B819C818230910591F02B813C81233092
:1020A0003105A9F08B819C8181309105C1F4ABE5AC
:1020B000B0E0EBE5F0E0808180648C9312C0ABE58A
:1020C000B0E0EBE5F0E0808180688C930AC0ABE57E
:1020D000B0E0EBE5F0E0808180628C9302C081E0AB
:1020E000898389810F900F900F900F90CF91DF918E
:1020F0000895DF93CF9300D000D0CDB7DEB78A83A9
:1021000019828A81282F30E03C832B838B819C812C
:102110008230910591F02B813C8123303105A9F06B
:102120008B819C8181309105C1F4ABE5B0E0EBE59A
:10213000F0E080818F7B8C9312C0ABE5B0E0EBE5E3
:10214000F0E080818F778C930AC0ABE5B0E0EBE5DF
:10215000F0E080818F7D8C9302C081E0898389814A
:102160000F900F900F900F90CF91DF910895DF9314
:10217000CF9300D00F92CDB7DEB79B838A831982AD
:102180008A819B81009739F08A819B81909381009D
:102190008093800002C082E0898389810F900F9034
:1021A0000F90CF91DF910895DF93CF9300D00F92DE
:1021B000CDB7DEB79B838A8319828A819B81009782
:1021C00039F08A819B81909383008093820002C0C2
:1021D00082E0898389810F900F900F90CF91DF91DA
:1021E0000895DF93CF9300D00F92CDB7DEB79B83D6
:1021F0008A8319828A819B81009739F08A819B8129
:10220000909385008093840002C082E08983898155
:102210000F900F900F90CF91DF9108951F920F9222
:102220000FB60F9211242F933F934F935F936F93A9
:102230007F938F939F93AF93BF93EF93FF93DF931E
:10224000CF93CDB7DEB78091800090918100009749
:1022500029F0E0918000F09181000995CF91DF9104
:10226000FF91EF91BF91AF919F918F917F916F916E
:102270005F914F913F912F910F900FBE0F901F9044
:1022800018951F920F920FB60F9211242F933F9320
:102290004F935F936F937F938F939F93AF93BF936E
:1022A000EF93FF93DF93CF93CDB7DEB7809182009A
:1022B00090918300009729F0E0918200F0918300D3
:1022C0000995CF91DF91FF91EF91BF91AF919F91D0
:1022D0008F917F916F915F914F913F912F910F90CF
:1022E0000FBE0F901F9018951F920F920FB60F926E
:1022F00011242F933F934F935F936F937F938F930B
:102300009F93AF93BF93EF93FF93DF93CF93CDB79B
:10231000DEB78091840090918500009729F0E091CC
:102320008400F09185000995CF91DF91FF91EF91A5
:10233000BF91AF919F918F917F916F915F914F91DD
:102340003F912F910F900FBE0F901F901895DF9324
:10235000CF93CDB7DEB7AFE5B0E0EFE5F0E0808139
:1023600080688C93CF91DF910895DF93CF93CDB7A1
:10237000DEB7AFE5B0E0EFE5F0E080818F778C93DA
:10238000CF91DF910895DF93CF93CDB7DEB7EAE326
:10239000F0E080EF8083E7E3F0E08FE08083E4E328
:1023A000F0E08FEF8083E1E3F0E01082EBE3F0E018
:1023B0001082E8E3F0E01082E5E3F0E01082E2E36F
:1023C000F0E01082CF91DF910895DF93CF93CDB7E6
:1023D000DEB7A3E5B0E0E3E5F0E0808180648C93B4
:1023E000A3E5B0E0E3E5F0E0808188608C93A3E5AD
:1023F000B0E0E3E5F0E080818F7E8C93A3E5B0E070
:10240000E3E5F0E0808180628C93CF91DF910895C5
:10241000DF93CF930F92CDB7DEB78983E2E5F0E08B
:10242000898180830F90CF91DF910895DF93CF93BF
:102430000F92CDB7DEB78983ECE5F0E08981882F74
:1024400090E0982F882724E630E0B9010E946215B9
:10245000CB0180830F90CF91DF910895DF93CF93CD
:102460000F92CDB7DEB78983ECE5F0E089818083F8
:102470000F90CF91DF910895DF93CF93CDB7DEB763
:10248000A3E5B0E0E3E5F0E08081887F8C93A3E5ED
:10249000B0E0E3E5F0E0808182608C93CF91DF9142
:1024A0000895DF93CF9300D00F92CDB7DEB79B8313
:1024B0008A8319828A819B81009739F08A819B8166
:1024C000909389008093880002C082E0898389818B
:1024D0000F900F900F90CF91DF910895DF93CF93DE
:1024E00000D00F92CDB7DEB79B838A8319828A8191
:1024F0009B81009739F08A819B819093870080931C
:10250000860002C082E0898389810F900F900F902E
:10251000CF91DF910895DF93CF93CDB7DEB72897A2
:102520000FB6F894DEBF0FBECDBF6A837B838C836A
:102530009D835F834E83288719828E819F810097B8
:1025400009F445C0A3E5B0E0E3E5F0E080818F7BCE
:102550008C93A3E5B0E0E3E5F0E0808188608C93A4
:10256000A9E5B0E0E9E5F0E0808182608C93ECE5DC
:10257000F0E08AEF8083A3E5B0E0E3E5F0E080815E
:10258000887F8C93A3E5B0E0E3E5F0E08081826092
:102590008C938E819F8190938B0080938A008A8197
:1025A0009B81AC81BD81880F991FAA1FBB1F880F1B
:1025B000991FAA1FBB1F8093900090939100A09336
:1025C0009200B093930088858093940002C082E0CB
:1025D0008983898128960FB6F894DEBF0FBECDBFE0
:1025E000CF91DF910895DF93CF93CDB7DEB7AEE4FF
:1025F000B0E0EEE4F0E08081887F8C93AEE4B0E060
:10260000EEE4F0E0808182608C93CF91DF910895B9
:10261000DF93CF93CDB7DEB7AFE4B0E0EFE4F0E007
:1026200080818F7B8C93AFE4B0E0EFE4F0E08081B9
:1026300080688C93AFE4B0E0EFE4F0E080818E7FBF
:102640008C93AFE4B0E0EFE4F0E0808182608C93A3
:10265000AEE4B0E0EEE4F0E0808188608C93AEE41C
:10266000B0E0EEE4F0E0808180618C93AEE4B0E015
:10267000EEE4F0E08081887F8C93AEE4B0E0EEE49D
:10268000F0E0808182608C93CF91DF910895DF9399
:10269000CF9300D0CDB7DEB79A838983ECE4F0E026
:1026A00089819A81918380830F900F90CF91DF91E0
:1026B0000895DF93CF93CDB7DEB7ECE4F0E08081EF
:1026C0009181CF91DF910895DF93CF9300D0CDB763
:1026D000DEB79A838983E6E4F0E089819A81918369
:1026E00080830F900F90CF91DF910895DF93CF9368
:1026F00000D0CDB7DEB79A838983EAE4F0E0898120
:102700009A81918380830F900F90CF91DF910895EC
:10271000DF93CF93CDB7DEB7AEE4B0E0EEE4F0E008
:10272000808180648C93A9E5B0E0E9E5F0E08081E8
:1027300080628C93CF91DF910895DF93CF9300D087
:10274000CDB7DEB78A8319828A81882341F4AEE44B
:10275000B0E0EEE4F0E0808180648C930DC08A816B
:10276000813041F4AEE4B0E0EEE4F0E080818F7BB4
:102770008C9302C081E0898389810F900F90CF9163
:10278000DF910895DF93CF93CDB7DEB7A9E5B0E031
:10279000E9E5F0E0808180628C93CF91DF9108952C
:1027A000DF93CF93CDB7DEB7E6E4F0E0808191818F
:1027B000CF91DF910895DF93CF93CDB7DEB7A9E531
:1027C000B0E0E9E5F0E080818F7D8C93CF91DF91DF
:1027D0000895DF93CF9300D00F92CDB7DEB79B83E0
:1027E0008A8319828A819B81009739F08A819B8133
:1027F00090938D0080938C0002C082E08983898150
:102800000F900F900F90CF91DF9108951F920F922C
:102810000FB60F9211242F933F934F935F936F93B3
:102820007F938F939F93AF93BF93EF93FF93DF9328
:10283000CF93CDB7DEB78091880090918900009743
:1028400029F0E0918800F0918900099580918A0033
:1028500090918B00009789F180918E0090918F006C
:10286000019690938F0080938E0080918E009091BE
:102870008F009C0140E050E0809190009091910089
:10288000A0919200B0919300281739074A075B077F
:10289000A1F4E0918A00F0918B00099510928F00CD
:1028A00010928E0080919400813039F4A9E5B0E057
:1028B000E9E5F0E080818D7F8C93CF91DF91FF91EE
:1028C000EF91BF91AF919F918F917F916F915F91A8
:1028D0004F913F912F910F900FBE0F901F90189521
:1028E0001F920F920FB60F9211242F933F934F9385
:1028F0005F936F937F938F939F93AF93BF93EF9368
:10290000FF93DF93CF93CDB7DEB780918600909190
:102910008700009729F0E0918600F09187000995E3
:10292000CF91DF91FF91EF91BF91AF919F918F91E7
:102930007F916F915F914F913F912F910F900FBEBB
:102940000F901F9018951F920F920FB60F9211249F
:102950002F933F934F935F936F937F938F939F93A7
:10296000AF93BF93EF93FF93DF93CF93CDB7DEB7D2
:1029700080918C0090918D00009729F0E0918C005F
:10298000F0918D000995CF91DF91FF91EF91BF916B
:10299000AF919F918F917F916F915F914F913F91F7
:1029A0002F910F900FBE0F901F901895DF93CF932C
:1029B000CDB7DEB70E94C31182E295E10E94B71045
:1029C0000E948D0E0E94F3120E949F090E94E51141
:1029D00089E10E9416120E943C120E94A711809168
:1029E000950090919600009731F480919700909116
:1029F00098000097A1F380E060E00E94090B80E658
:102A000090E00E946F098091950090919600CC0112
:102A1000A0E0B0E0BC01CD010E94670B81E060E066
:102A20000E94090B8EE690E00E946F09809197004A
:102A300090919800CC01A0E0B0E0BC01CD010E94D3
:102A4000670BFFCFDF93CF93CDB7DEB780919900AF
:102A50008F5F8093990080919900813029F480E004
:102A600090E00E9447132BC080919900823051F46E
:102A70000E945913909396008093950083E00E94E2
:102A80002D0F1DC0809199008330C9F40E94591305
:102A90009093980080939700209197003091980030
:102AA0008091950090919600A901481B590BCA018D
:102AB000909398008093970086E00E94030FCF9137
:102AC000DF91089597FB092E07260AD077FD04D0E1
:102AD0002ED006D000201AF4709561957F4F08958E
:102AE000F6F7909581959F4F0895A1E21A2EAA1BA3
:102AF000BB1BFD010DC0AA1FBB1FEE1FFF1FA217AE
:102B0000B307E407F50720F0A21BB30BE40BF50BAA
:102B1000661F771F881F991F1A9469F76095709533
:102B2000809590959B01AC01BD01CF010895AA1B32
:102B3000BB1B51E107C0AA1FBB1FA617B70710F0A8
:102B4000A61BB70B881F991F5A95A9F780959095DA
:102B5000BC01CD0108952F923F924F925F926F92E8
:102B60007F928F929F92AF92BF92CF92DF92EF921D
:102B7000FF920F931F93CF93DF93CDB7DEB7CA1B9E
:102B8000DB0B0FB6F894DEBF0FBECDBF09942A88C9
:102B9000398848885F846E847D848C849B84AA8471
:102BA000B984C884DF80EE80FD800C811B81AA81FE
:102BB000B981CE0FD11D0FB6F894DEBF0FBECDBFC9
:082BC000ED010895F894FFCF28
:102BC800506572696F645F5469636B733D004F4E63
:102BD8005F5469636B733D00000000000000000053
:00000001FF
