:100000000C942A000C9447000C9447000C94470071
:100010000C9447000C9447000C94010D0C9447007D
:100020000C9447000C9447000C94640C0C94CE0C78
:100030000C9447000C9447000C9447000C94470024
:100040000C949E070C9447000C9447000C944700B6
:100050000C94470011241FBECFE5D8E0DEBFCDBF12
:1000600010E0A0E6B0E0E4EBFCE102C005900D92E8
:10007000AA36B107D9F710E0AAE6B0E001C01D9298
:10008000A438B107E1F70E94340D0C94580E0C947B
:100090000000EF92FF920F931F937B018C0120E0F1
:1000A00030E040E05FE40E94490388238CF0C801FF
:1000B000B70120E030E040E05FE40E94C1010E940F
:1000C000A9039B01AC01205030404040504806C07D
:1000D000C801B7010E94A9039B01AC01B901CA0183
:1000E0001F910F91FF90EF900895A0E0B0E0EBE733
:1000F000F0E00C94210EDC012B01FA019C9192306E
:1001000008F439C1EB018881823008F433C194309E
:1001100069F4843009F02FC111969C91119789815F
:10012000981709F428C1A0E6B0E025C1843009F48D
:1001300021C18230A9F4923009F01DC19A01AD01AC
:1001400088E0EA010990AE01E90109929E0181501F
:10015000C1F7E201898111969C918923818308C1AD
:10016000923009F407C112962D903C901397EB0141
:100170008A819B811496AD90BD90CD90DC901797AD
:10018000EC80FD800E811F819101281B390BB90184
:1001900037FF04C066277727621B730B6032710537
:1001A0000CF061C0121613066CF537014801062EDB
:1001B00004C096948794779467940A94D2F721E0C8
:1001C00030E040E050E004C0220F331F441F551FB1
:1001D0006A95D2F721503040404050402E213F21B7
:1001E00040235123211531054105510521F021E01E
:1001F00030E040E050E079018A01E628F72808293C
:1002000019293CC0232BD1F1260E371E350146019A
:10021000062E04C096948794779467940A94D2F734
:1002200021E030E040E050E004C0220F331F441FC3
:10023000551F6A95D2F721503040404050402A2146
:100240003B214C215D21211531054105510521F04E
:1002500021E030E040E050E059016A01A628B728CB
:10026000C828D9280BC0821593052CF01C01AA249C
:10027000BB24650103C0EE24FF24870111969C91E5
:10028000D20111968C91981709F445C0992339F041
:10029000A80197012A193B094C095D0906C0A6016E
:1002A00095012E193F09400B510B57FD08C01182D3
:1002B0003382228224833583468357831DC081E0A5
:1002C00081833382228288279927DC01821B930B4A
:1002D000A40BB50B84839583A683B7830DC0220F2F
:1002E000331F441F551F24833583468357838281E0
:1002F000938101979383828324813581468157813D
:10030000DA01C9010197A109B1098F5F9F4FAF4F72
:10031000BF4328F30BC0918333822282EA0CFB1C7B
:100320000C1D1D1DE482F5820683178383E0808304
:10033000248135814681578157FF1AC0C901AA27F8
:1003400097FDA095BA2F81709070A070B0705695EF
:10035000479537952795822B932BA42BB52B848318
:100360009583A683B7838281938101969383828349
:10037000DF0101C0D201CD01CDB7DEB7E2E10C94BF
:100380003D0EA0E2B0E0E7ECF1E00C942D0E6983A5
:100390007A838B839C832D833E834F835887E9E048
:1003A000EE2EF12CEC0EFD1ECE010196B7010E943F
:1003B000D2048E010F5E1F4FCE010596B8010E9438
:1003C000D2048A8991E089278A8BC701B801AE01DE
:1003D000475E5F4F0E9475000E94FD03A096E6E015
:1003E0000C94490EA0E2B0E0E8EFF1E00C942D0E81
:1003F00069837A838B839C832D833E834F835887C5
:10040000F9E0EF2EF12CEC0EFD1ECE010196B701A6
:100410000E94D2048E010F5E1F4FCE010596B801D7
:100420000E94D204C701B801AE01475E5F4F0E942F
:1004300075000E94FD03A096E6E00C94490EA0E230
:10044000B0E0E5E2F2E00C94210E69837A838B83BD
:100450009C832D833E834F835887CE010196BE0136
:10046000675F7F4F0E94D204CE010596BE016F5E8A
:100470007F4F0E94D2049985923088F0898982301A
:10048000C8F0943019F4823051F404C0843029F457
:10049000923081F480E690E0C6C0923049F420E0CA
:1004A0009A858A89981321E02A87CE010996BBC0D4
:1004B000823049F420E09A858A89981321E02A8BBA
:1004C000CE014196B0C02D843E844F8458886D88FB
:1004D0007E888F88988CEE24FF248701AA24BB2471
:1004E000650140E050E060E070E0E0E0F0E0C10174
:1004F00081709070892BE9F0E60CF71C081D191D1E
:100500009A01AB012A0D3B1D4C1D5D1D80E090E062
:10051000A0E0B0E0E614F7040805190520F481E036
:1005200090E0A0E0B0E0BA01A901480F591F6A1F8E
:100530007B1FAA0CBB1CCC1CDD1C97FE08C081E0F5
:1005400090E0A0E0B0E0A82AB92ACA2ADB2A3196B6
:10055000E032F10549F0660C771C881C991C569412
:10056000479437942794C3CFFA85EA892B893C892D
:100570008B859C85280F391F2E5F3F4F17C0CA01FE
:1005800081709070892B61F016950795F794E79428
:1005900080E090E0A0E0B0E8E82AF92A0A2B1B2BC3
:1005A00076956795579547952F5F3F4F77FDE7CF36
:1005B0000CC0440F551F661F771F17FD4160EE0CDE
:1005C000FF1C001F111F21503040403090E05907A0
:1005D00090E0690790E4790760F32B8F3C8FDB0193
:1005E000CA018F779070A070B07080349105A1051A
:1005F000B10561F447FD0AC0E114F10401051105DC
:1006000029F0405C5F4F6F4F7F4F40781A8EFE1786
:1006100011F081E08A8F4D8F5E8F6F8F78A383E01A
:10062000898FCE0149960E94FD03A096E2E10C94C9
:100630003D0EA8E1B0E0EFE1F3E00C942D0E6983EC
:100640007A838B839C832D833E834F83588789E0F5
:10065000E82EF12CEC0EFD1ECE010196B7010E9492
:10066000D2048E010F5E1F4FCE010596B8010E9485
:10067000D2048985823040F08989823028F0C70110
:10068000B8010E944A0501C08FEF6896E6E00C941D
:10069000490EA8E1B0E0EFE4F3E00C942D0E69837D
:1006A0007A838B839C832D833E834F83588789E095
:1006B000E82EF12CEC0EFD1ECE010196B7010E9432
:1006C000D2048E010F5E1F4FCE010596B8010E9425
:1006D000D2048985823040F08989823028F0C701B0
:1006E000B8010E944A0501C08FEF6896E6E00C94BD
:1006F000490EA8E1B0E0EFE7F3E00C942D0E69831A
:100700007A838B839C832D833E834F83588789E034
:10071000E82EF12CEC0EFD1ECE010196B7010E94D1
:10072000D2048E010F5E1F4FCE010596B8010E94C4
:10073000D2048985823040F08989823028F0C7014F
:10074000B8010E944A0501C081E06896E6E00C9479
:10075000490EACE0B0E0EFEAF3E00C94310E6983AF
:100760007A838B839C83CE010196BE016B5F7F4FA2
:100770000E94D2048D81823061F1823050F1843048
:1007800021F48E81882351F12EC02F81388537FDC9
:1007900020C06E812F3131051CF06623F9F023C093
:1007A0008EE190E0821B930B29853A854B855C8511
:1007B00004C056954795379527958A95D2F76623B5
:1007C000B1F050954095309521953F4F4F4F5F4F79
:1007D0000EC020E030E040E050E009C02FEF3FEFD6
:1007E0004FEF5FE704C020E030E040E050E8B9019F
:1007F000CA012C96E2E00C944D0EDF92EF92FF922C
:100800000F931F93FC01E480F58006811781D1804E
:100810008081823048F480E090E0A0E1B0E0E82AF6
:10082000F92A0A2B1B2BA5C0843009F49FC0823003
:1008300021F4EE24FF24870105C0E114F104010531
:10084000110519F4E0E0F0E096C0628173819FEF3A
:10085000623879070CF05BC022E83FEF261B370BAC
:100860002A3131052CF020E030E040E050E02AC091
:10087000B801A701022E04C0769567955795479554
:100880000A94D2F781E090E0A0E0B0E004C0880FC5
:10089000991FAA1FBB1F2A95D2F70197A109B10979
:1008A0008E219F21A023B1230097A105B10521F03E
:1008B00081E090E0A0E0B0E09A01AB01282B392B59
:1008C0004A2B5B2BDA01C9018F779070A070B07052
:1008D00080349105A105B10539F427FF09C0205CDA
:1008E0003F4F4F4F5F4F04C0215C3F4F4F4F5F4F13
:1008F000E0E0F0E02030A0E03A07A0E04A07A0E402
:100900005A0710F0E1E0F0E079018A0127C0603871
:10091000710564F5FB01E158FF4FD801C7018F77DE
:100920009070A070B07080349105A105B10539F4C4
:10093000E7FE0DC080E490E0A0E0B0E004C08FE3EB
:1009400090E0A0E0B0E0E80EF91E0A1F1B1F17FFA1
:1009500005C016950795F794E794319687E01695AC
:100960000795F794E7948A95D1F705C0EE24FF2404
:100970008701EFEFF0E06E2F679566276795902F60
:100980009F77D794DD24D7948E2F8695492F462BB9
:10099000582F5D29B701CA011F910F91FF90EF9069
:1009A000DF900895FC01DB01408151812281622F9B
:1009B0006F7770E0221F2227221F9381892F880FD3
:1009C000822B282F30E0991F9927991F11969C930D
:1009D000119721153105A9F54115510561057105DD
:1009E00011F482E037C082E89FEF13969C938E93B8
:1009F00012979A01AB0167E0220F331F441F551F66
:100A00006A95D1F783E08C930DC0220F331F441FEA
:100A1000551F12968D919C911397019713969C9355
:100A20008E931297203080E0380780E0480780E4FA
:100A3000580758F314962D933D934D935C93179755
:100A400008952F3F310579F4411551056105710570
:100A500019F484E08C93089564FF03C081E08C93C3
:100A600012C01C9210C02F57304013963C932E9307
:100A7000129783E08C9387E0440F551F661F771F02
:100A80008A95D1F7706414964D935D936D937C9322
:100A9000179708951F93DC01FB019C91923008F495
:100AA00047C08081823008F443C0943051F41196DD
:100AB0001C91843099F58181682F70E0611B710968
:100AC0003FC0843021F0923031F48230B9F181811D
:100AD000882389F12DC011961C9111978230F1F075
:100AE00081811817D9F412962D913C911397828128
:100AF00093818217930794F028173907BCF0149656
:100B00008D919D910D90BC91A02D248135814681C0
:100B10005781281739074A075B0718F4112341F05A
:100B20000AC082179307A407B50740F4112319F0F0
:100B300061E070E005C06FEF7FEF02C060E070E041
:100B4000CB011F910895DF93CF93CDB7DEB7A7E216
:100B5000B0E0E7E2F0E0808180648C93A7E2B0E04F
:100B6000E7E2F0E080818F778C93A7E2B0E0E7E2E4
:100B7000F0E0808180628C93A6E2B0E0E6E2F0E0F3
:100B80008081887F8C93A6E2B0E0E6E2F0E080818D
:100B900083608C93A6E2B0E0E6E2F0E080818068BA
:100BA0008C93CF91DF910895DF93CF93CDB7DEB7CC
:100BB00029970FB6F894DEBF0FBECDBF8F8379871C
:100BC000688781E08E831A821B821C821D821982B3
:100BD00080916800813009F06EC082E080936800E7
:100BE000A7E2B0E0E7E2F0E0808180768C93A7E2B4
:100BF000B0E0E7E2F0E090818F81892B8C93A6E250
:100C0000B0E0E6E2F0E0808180648C930BC08A81E2
:100C10009B81AC81BD810196A11DB11D8A839B83FF
:100C2000AC83BD83E6E2F0E0808182958F70882FEF
:100C300090E081709070009761F48A819B81AC8113
:100C4000BD81803523EC920720E0A20720E0B207A7
:100C5000F1F68A819B81AC81BD81803523EC9207BE
:100C600020E0A20720E0B20719F481E0898325C0C3
:100C7000A6E2B0E0E6E2F0E0808180618C938E81B4
:100C8000813051F4E5E2F0E08081882F90E0E88542
:100C9000F985918380830BC08E81823041F4E4E238
:100CA000F0E080819181E885F9859183808381E0FE
:100CB0008093680002C083E089838981882F90E057
:100CC00029960FB6F894DEBF0FBECDBFCF91DF914E
:100CD0000895DF93CF9300D000D000D0CDB7DEB71A
:100CE0008A837C836B835E834D838091680081302F
:100CF000D1F58B819C81009721F08D819E81009799
:100D000019F482E0898331C082E0809368001092F8
:100D100074008B819C8190936B0080936A008D811D
:100D20009E8190936D0080936C00A7E2B0E0E7E2B3
:100D3000F0E0808180768C93A7E2B0E0E7E2F0E01B
:100D400090818A81892B8C93A6E2B0E0E6E2F0E004
:100D5000808180648C93A6E2B0E0E6E2F0E08081DE
:100D600088608C9302C083E089838981882F90E01A
:100D700026960FB6F894DEBF0FBECDBFCF91DF91A0
:100D80000895AF92BF92CF92DF92EF92FF920F93AE
:100D90001F93DF93CF93CDB7DEB760970FB6F8946C
:100DA000DEBF0FBECDBF69837A838B839C832D8387
:100DB0003E834F835887E986FA860B871C87AD866A
:100DC000BE86CF86D88A2D853E854F8558898985F0
:100DD0009A85AB85BC8579018A01E81AF90A0A0B64
:100DE0001B0B2D8D3E8D4F8D58A189819A81AB8132
:100DF000BC81281B390B4A0B5B0BC801B7010E9451
:100E0000C50D7B018C012D813E814F8158858981E3
:100E10009A81AB81BC81281B390B4A0B5B0BC80143
:100E2000B7010E94E40DDA01C9019C01AD01898579
:100E30009A85AB85BC85820F931FA41FB51FBC018B
:100E4000CD0160960FB6F894DEBF0FBECDBFCF9137
:100E5000DF911F910F91FF90EF90DF90CF90BF90A7
:100E6000AF900895DF93CF9300D00F92CDB7DEB748
:100E70009B838A8319828A819B81009719F482E07F
:100E8000898355C080916800813009F04EC082E0AE
:100E90008093680081E080937400EA81FB81808107
:100EA000918190936F0080936E00EA81FB81828133
:100EB00093819093710080937000EA81FB8184811B
:100EC00080937300EA81FB818581968190936D0008
:100ED00080936C0010927200A7E2B0E0E7E2F0E0CD
:100EE0008081807E8C93A7E2B0E0E7E2F0E0408171
:100EF00020916E0030916F0080917200882F90E0F9
:100F0000F901E80FF91F8081842B8C93A6E2B0E0F1
:100F1000E6E2F0E0808180648C93A6E2B0E0E6E255
:100F2000F0E0808188608C9302C083E089838981AE
:100F30000F900F900F90CF91DF9108951F920F9215
:100F40000FB60F9211242F933F934F935F936F939C
:100F50007F938F939F93AF93BF93EF93FF93DF9311
:100F6000CF930F92CDB7DEB781E089838091740073
:100F7000882369F58981813069F4A0916A00B09174
:100F80006B00E5E2F0E08081882F90E011969C9361
:100F90008E930DC08981823051F4E0916A00F09106
:100FA0006B00A4E2B0E08D919C919183808381E0FD
:100FB00080936800E0916C00F0916D000995A6E2C5
:100FC000B0E0E6E2F0E08081877F8C9371C0809191
:100FD0007400813009F06CC089818130B1F42091B6
:100FE00070003091710080917200882F90E0880F1E
:100FF000991FD901A80FB91FE5E2F0E08081882F81
:1010000090E011969C938E9317C089818230A1F451
:10101000209170003091710080917200882F90E0D3
:10102000880F991FD901A80FB91FE4E2F0E0808171
:10103000918111969C938E93809172008F5F809323
:1010400072009091720080917300981781F481E092
:1010500080936800E0916C00F0916D000995A6E224
:10106000B0E0E6E2F0E08081877F8C9321C0A7E2C8
:10107000B0E0E7E2F0E08081807E8C93A7E2B0E010
:10108000E7E2F0E0408120916E0030916F008091A6
:101090007200882F90E0F901E80FF91F8081842BFE
:1010A0008C93A6E2B0E0E6E2F0E0808180648C936D
:1010B0000F90CF91DF91FF91EF91BF91AF919F91F1
:1010C0008F917F916F915F914F913F912F910F90F1
:1010D0000FBE0F901F901895DF93CF93CDB7DEB75B
:1010E00028970FB6F894DEBF0FBECDBF8A836B83FF
:1010F0004C8319828B81883008F0F4C08C8188235E
:1011000009F077C08A81282F30E038872F838F81BC
:1011100098858130910559F12F813885223031052C
:101120002CF48F819885009769F060C02F813885F5
:101130002230310589F18F8198858330910509F43A
:1011400040C054C0ABE3B0E0EBE3F0E08081482F57
:101150008B81282F30E081E090E0022E02C0880FC2
:10116000991F0A94E2F7809584238C93BDC0A8E36D
:10117000B0E0E8E3F0E08081482F8B81282F30E059
:1011800081E090E0022E02C0880F991F0A94E2F7D6
:10119000809584238C93A8C0A5E3B0E0E5E3F0E05C
:1011A0008081482F8B81282F30E081E090E0022E53
:1011B00002C0880F991F0A94E2F7809584238C93CC
:1011C00093C0A2E3B0E0E2E3F0E08081482F8B819E
:1011D000282F30E081E090E0022E02C0880F991F96
:1011E0000A94E2F7809584238C937EC081E0898302
:1011F0007BC08C81813009F072C08A81282F30E059
:101200003E832D838D819E818130910549F12D8111
:101210003E81223031052CF48D819E81009761F052
:101220005BC02D813E812230310571F18D819E811F
:1012300083309105E9F150C0ABE3B0E0EBE3F0E0BF
:101240008081482F8B81282F30E081E090E0022EB2
:1012500002C0880F991F0A94E2F7842B8C9344C034
:10126000A8E3B0E0E8E3F0E08081482F8B81282FED
:1012700030E081E090E0022E02C0880F991F0A94AE
:10128000E2F7842B8C9330C0A5E3B0E0E5E3F0E017
:101290008081482F8B81282F30E081E090E0022E62
:1012A00002C0880F991F0A94E2F7842B8C931CC00C
:1012B000A2E3B0E0E2E3F0E08081482F8B81282FA9
:1012C00030E081E090E0022E02C0880F991F0A945E
:1012D000E2F7842B8C9308C081E0898305C081E00C
:1012E000898302C081E08983898128960FB6F894AA
:1012F000DEBF0FBECDBFCF91DF910895DF93CF93B7
:1013000000D000D00F92CDB7DEB78A836B831982ED
:101310008A81282F30E03D832C838C819D81813010
:101320009105D1F02C813D81223031052CF48C8146
:101330009D81009761F01FC02C813D8122303105D5
:1013400081F08C819D818330910581F014C0EBE3A5
:10135000F0E08B81808311C0E8E3F0E08B81808333
:101360000CC0E5E3F0E08B81808307C0E2E3F0E0AE
:101370008B81808302C081E0898389810F900F90E7
:101380000F900F900F90CF91DF910895DF93CF933F
:10139000CDB7DEB727970FB6F894DEBF0FBECDBF2F
:1013A0008A836B835D834C8319828C819D81009736
:1013B00009F478C08B81883008F074C08A81282FA6
:1013C00030E03F832E834E815F814130510559F1DA
:1013D0008E819F818230910534F42E813F812115C9
:1013E000310569F05CC04E815F814230510579F171
:1013F0008E819F818330910509F43DC050C0E9E39F
:10140000F0E08081282F30E08B81882F90E0A901C7
:1014100002C0559547958A95E2F7CA018170EC8123
:10142000FD81808341C0E6E3F0E08081282F30E039
:101430008B81882F90E0A90102C0559547958A9528
:10144000E2F7CA018170EC81FD8180832DC0E3E366
:10145000F0E08081282F30E08B81882F90E0A90177
:1014600002C0559547958A95E2F7CA018170EC81D3
:10147000FD81808319C0E0E3F0E08081282F30E017
:101480008B81882F90E0A90102C0559547958A95D8
:10149000E2F7CA018170EC81FD81808305C081E0A3
:1014A000898302C081E08983898127960FB6F894E9
:1014B000DEBF0FBECDBFCF91DF910895DF93CF93F5
:1014C000CDB7DEB7AFE5B0E0EFE5F0E08081806852
:1014D0008C93CF91DF910895DF93CF93CDB7DEB793
:1014E000AFE5B0E0EFE5F0E080818F778C93CF91AE
:1014F000DF910895DF93CF93CDB7DEB7EAE3F0E055
:101500001082E7E3F0E088E08083E4E3F0E010821B
:10151000E1E3F0E01082EBE3F0E01082E8E3F0E0DA
:101520001082E5E3F0E01082E2E3F0E01082CF9178
:10153000DF910895DF93CF93CDB7DEB7A3E5B0E099
:10154000E3E5F0E0808180648C93A3E5B0E0E3E51F
:10155000F0E0808188608C93A3E5B0E0E3E5F0E003
:1015600080818F7E8C93A3E5B0E0E3E5F0E080819D
:1015700080628C93CF91DF910895DF93CF930F9288
:10158000CDB7DEB78983E2E5F0E0898180830F90F3
:10159000CF91DF910895DF93CF930F92CDB7DEB750
:1015A0008983ECE5F0E0898180830F90CF91DF9112
:1015B0000895DF93CF93CDB7DEB7A3E5B0E0E3E5C1
:1015C000F0E08081887F8C93A3E5B0E0E3E5F0E074
:1015D000808182608C93CF91DF910895DF93CF93C8
:1015E00000D00F92CDB7DEB79B838A8319828A81A0
:1015F0009B81009739F08A819B819093780080933A
:10160000770002C082E0898389810F900F900F904C
:10161000CF91DF910895DF93CF9300D00F92CDB794
:10162000DEB79B838A8319828A819B81009739F078
:101630008A819B81909376008093750002C082E03E
:10164000898389810F900F900F90CF91DF9108953A
:10165000DF93CF93CDB7DEB728970FB6F894DEBFF0
:101660000FBECDBF6A837B838C839D835F834E8354
:10167000288719828E819F81009709F445C0A3E5D0
:10168000B0E0E3E5F0E080818F7B8C93A3E5B0E0F0
:10169000E3E5F0E0808188608C93A9E5B0E0E9E5BE
:1016A000F0E0808182608C93ECE5F0E08AEF80834B
:1016B000A3E5B0E0E3E5F0E08081887F8C93A3E5CB
:1016C000B0E0E3E5F0E0808182608C938E819F81C1
:1016D00090937A00809379008A819B81AC81BD814F
:1016E000880F991FAA1FBB1F880F991FAA1FBB1F16
:1016F00080937F0090938000A0938100B09382003C
:1017000088858093830002C082E08983898128963E
:101710000FB6F894DEBF0FBECDBFCF91DF91089515
:10172000DF93CF93CDB7DEB7AEE4B0E0EEE4F0E008
:101730008081887F8C93AEE4B0E0EEE4F0E08081BD
:1017400082608C93CF91DF910895DF93CF9300D087
:10175000CDB7DEB79A838983ECE4F0E089819A8182
:10176000918380830F900F90CF91DF910895DF9345
:10177000CF93CDB7DEB7ECE4F0E080819181CF91DB
:10178000DF910895DF93CF9300D0CDB7DEB79A8372
:101790008983E6E4F0E089819A81918380830F90C8
:1017A0000F90CF91DF910895DF93CF9300D0CDB705
:1017B000DEB79A838983EAE4F0E089819A81918394
:1017C00080830F900F90CF91DF910895DF93CF9397
:1017D000CDB7DEB7AEE4B0E0EEE4F0E08081806447
:1017E0008C93A9E5B0E0E9E5F0E0808180628C931C
:1017F000CF91DF910895DF93CF9300D0CDB7DEB7BF
:101800008A8319828A81882341F4AEE4B0E0EEE451
:10181000F0E0808180648C930DC08A81813041F436
:10182000AEE4B0E0EEE4F0E080818F7B8C9302C008
:1018300081E0898389810F900F90CF91DF91089586
:10184000DF93CF93CDB7DEB7A9E5B0E0E9E5F0E0EF
:10185000808180628C93CF91DF910895DF93CF9345
:10186000CDB7DEB7E6E4F0E080819181CF91DF91E2
:101870000895DF93CF93CDB7DEB7A9E5B0E0E9E5F2
:10188000F0E080818F7D8C93CF91DF910895DF937D
:10189000CF9300D00F92CDB7DEB79B838A83198296
:1018A0008A819B81009739F08A819B8190937C008B
:1018B00080937B0002C082E0898389810F900F9022
:1018C0000F90CF91DF9108951F920F920FB60F9254
:1018D00011242F933F934F935F936F937F938F9335
:1018E0009F93AF93BF93EF93FF93DF93CF93CDB7C6
:1018F000DEB78091770090917800009729F0E09111
:101900007700F091780009958091790090917A00A4
:10191000009789F180917D0090917E0001969093CF
:101920007E0080937D0080917D0090917E009C01DF
:1019300040E050E080917F0090918000A091810074
:10194000B0918200281739074A075B07A1F4E0919C
:101950007900F0917A00099510927E0010927D0036
:1019600080918300813039F4A9E5B0E0E9E5F0E049
:1019700080818D7F8C93CF91DF91FF91EF91BF910B
:10198000AF919F918F917F916F915F914F913F9117
:101990002F910F900FBE0F901F9018951F920F92CE
:1019A0000FB60F9211242F933F934F935F936F9332
:1019B0007F938F939F93AF93BF93EF93FF93DF93A7
:1019C000CF93CDB7DEB780917500909176000097E8
:1019D00029F0E0917500F09176000995CF91DF91A3
:1019E000FF91EF91BF91AF919F918F917F916F91F7
:1019F0005F914F913F912F910F900FBE0F901F90CD
:101A000018951F920F920FB60F9211242F933F93A8
:101A10004F935F936F937F938F939F93AF93BF93F6
:101A2000EF93FF93DF93CF93CDB7DEB780917B0029
:101A300090917C00009729F0E0917B00F0917C0070
:101A40000995CF91DF91FF91EF91BF91AF919F9158
:101A50008F917F916F915F914F913F912F910F9057
:101A60000FBE0F901F901895DF93CF93CDB7DEB7C1
:101A70002F970FB6F894DEBF0FBECDBF0E947A0A33
:101A80000E949A0A0E94D90A0E945E0A1F8678C0A4
:101A90008F850E94CB0A80E090E0A0E2B1E48B87C2
:101AA0009C87AD87BE876B857C858D859E8520E074
:101AB00030E04AEF54E40E941F02DC01CB018F8327
:101AC0009887A987BA876F81788589859A8520E06C
:101AD00030E040E85FE30E94790388232CF481E042
:101AE00090E09E838D833FC06F81788589859A853C
:101AF00020E03FEF4FE757E40E94190318164CF51A
:101B00006B857C858D859E8520E030E040E251E448
:101B10000E941F02DC01CB01BC01CD010E944900E3
:101B2000DC01CB019E838D830FC088EC90E09C8309
:101B30008B838B819C810197F1F79C838B838D81B3
:101B40009E8101979E838D838D819E81009769F789
:101B500014C06F81788589859A850E944900DC01CF
:101B6000CB019E838D838D819E819A838983898118
:101B70009A810197F1F79A8389838F858F5F8F8789
:101B80008F858F3F09F084CF81CF629FD001739FF3
:101B9000F001829FE00DF11D649FE00DF11D929F09
:101BA000F00D839FF00D749FF00D659FF00D992748
:101BB000729FB00DE11DF91F639FB00DE11DF91F6C
:101BC000BD01CF011124089597FB092E05260ED0E3
:101BD00057FD04D014D00AD0001C38F4509540951D
:101BE000309521953F4F4F4F5F4F0895F6F79095F1
:101BF0008095709561957F4F8F4F9F4F0895A1E21B
:101C00001A2EAA1BBB1BFD010DC0AA1FBB1FEE1F76
:101C1000FF1FA217B307E407F50720F0A21BB30BC1
:101C2000E40BF50B661F771F881F991F1A9469F73D
:101C300060957095809590959B01AC01BD01CF0199
:101C400008952F923F924F925F926F927F928F9260
:101C50009F92AF92BF92CF92DF92EF92FF920F933B
:101C60001F93CF93DF93CDB7DEB7CA1BDB0B0FB645
:101C7000F894DEBF0FBECDBF09942A883988488802
:101C80005F846E847D848C849B84AA84B984C88498
:101C9000DF80EE80FD800C811B81AA81B981CE0F8F
:101CA000D11D0FB6F894DEBF0FBECDBFED01089574
:041CB000F894FFCFD6
:0A1CB4000000000000000000010025
:00000001FF
